{
  "_format": "hh-sol-artifact-1",
  "contractName": "NFT",
  "sourceName": "contracts/NFT.sol",
  "abi": [
    {
      "inputs": [],
      "stateMutability": "nonpayable",
      "type": "constructor"
    },
    {
      "anonymous": false,
      "inputs": [
        {
          "indexed": true,
          "internalType": "address",
          "name": "owner",
          "type": "address"
        },
        {
          "indexed": true,
          "internalType": "address",
          "name": "approved",
          "type": "address"
        },
        {
          "indexed": true,
          "internalType": "uint256",
          "name": "tokenId",
          "type": "uint256"
        }
      ],
      "name": "Approval",
      "type": "event"
    },
    {
      "anonymous": false,
      "inputs": [
        {
          "indexed": true,
          "internalType": "address",
          "name": "owner",
          "type": "address"
        },
        {
          "indexed": true,
          "internalType": "address",
          "name": "operator",
          "type": "address"
        },
        {
          "indexed": false,
          "internalType": "bool",
          "name": "approved",
          "type": "bool"
        }
      ],
      "name": "ApprovalForAll",
      "type": "event"
    },
    {
      "anonymous": false,
      "inputs": [
        {
          "indexed": true,
          "internalType": "address",
          "name": "from",
          "type": "address"
        },
        {
          "indexed": true,
          "internalType": "address",
          "name": "to",
          "type": "address"
        },
        {
          "indexed": true,
          "internalType": "uint256",
          "name": "tokenId",
          "type": "uint256"
        }
      ],
      "name": "Transfer",
      "type": "event"
    },
    {
      "inputs": [
        {
          "internalType": "address",
          "name": "to",
          "type": "address"
        },
        {
          "internalType": "uint256",
          "name": "tokenId",
          "type": "uint256"
        }
      ],
      "name": "approve",
      "outputs": [],
      "stateMutability": "nonpayable",
      "type": "function"
    },
    {
      "inputs": [
        {
          "internalType": "address",
          "name": "owner",
          "type": "address"
        }
      ],
      "name": "balanceOf",
      "outputs": [
        {
          "internalType": "uint256",
          "name": "",
          "type": "uint256"
        }
      ],
      "stateMutability": "view",
      "type": "function"
    },
    {
      "inputs": [
        {
          "internalType": "uint256",
          "name": "tokenId",
          "type": "uint256"
        }
      ],
      "name": "getApproved",
      "outputs": [
        {
          "internalType": "address",
          "name": "",
          "type": "address"
        }
      ],
      "stateMutability": "view",
      "type": "function"
    },
    {
      "inputs": [
        {
          "internalType": "address",
          "name": "owner",
          "type": "address"
        },
        {
          "internalType": "address",
          "name": "operator",
          "type": "address"
        }
      ],
      "name": "isApprovedForAll",
      "outputs": [
        {
          "internalType": "bool",
          "name": "",
          "type": "bool"
        }
      ],
      "stateMutability": "view",
      "type": "function"
    },
    {
      "inputs": [],
      "name": "name",
      "outputs": [
        {
          "internalType": "string",
          "name": "",
          "type": "string"
        }
      ],
      "stateMutability": "view",
      "type": "function"
    },
    {
      "inputs": [
        {
          "internalType": "uint256",
          "name": "tokenId",
          "type": "uint256"
        }
      ],
      "name": "ownerOf",
      "outputs": [
        {
          "internalType": "address",
          "name": "",
          "type": "address"
        }
      ],
      "stateMutability": "view",
      "type": "function"
    },
    {
      "inputs": [
        {
          "internalType": "string",
          "name": "uri",
          "type": "string"
        },
        {
          "internalType": "address",
          "name": "marketPlaceAddress",
          "type": "address"
        },
        {
          "internalType": "address",
          "name": "creator",
          "type": "address"
        }
      ],
      "name": "safeMint",
      "outputs": [
        {
          "internalType": "uint256",
          "name": "",
          "type": "uint256"
        }
      ],
      "stateMutability": "payable",
      "type": "function"
    },
    {
      "inputs": [
        {
          "internalType": "address",
          "name": "from",
          "type": "address"
        },
        {
          "internalType": "address",
          "name": "to",
          "type": "address"
        },
        {
          "internalType": "uint256",
          "name": "tokenId",
          "type": "uint256"
        }
      ],
      "name": "safeTransferFrom",
      "outputs": [],
      "stateMutability": "nonpayable",
      "type": "function"
    },
    {
      "inputs": [
        {
          "internalType": "address",
          "name": "from",
          "type": "address"
        },
        {
          "internalType": "address",
          "name": "to",
          "type": "address"
        },
        {
          "internalType": "uint256",
          "name": "tokenId",
          "type": "uint256"
        },
        {
          "internalType": "bytes",
          "name": "_data",
          "type": "bytes"
        }
      ],
      "name": "safeTransferFrom",
      "outputs": [],
      "stateMutability": "nonpayable",
      "type": "function"
    },
    {
      "inputs": [
        {
          "internalType": "address",
          "name": "operator",
          "type": "address"
        },
        {
          "internalType": "bool",
          "name": "approved",
          "type": "bool"
        }
      ],
      "name": "setApprovalForAll",
      "outputs": [],
      "stateMutability": "nonpayable",
      "type": "function"
    },
    {
      "inputs": [
        {
          "internalType": "bytes4",
          "name": "interfaceId",
          "type": "bytes4"
        }
      ],
      "name": "supportsInterface",
      "outputs": [
        {
          "internalType": "bool",
          "name": "",
          "type": "bool"
        }
      ],
      "stateMutability": "view",
      "type": "function"
    },
    {
      "inputs": [],
      "name": "symbol",
      "outputs": [
        {
          "internalType": "string",
          "name": "",
          "type": "string"
        }
      ],
      "stateMutability": "view",
      "type": "function"
    },
    {
      "inputs": [
        {
          "internalType": "uint256",
          "name": "tokenId",
          "type": "uint256"
        }
      ],
      "name": "tokenURI",
      "outputs": [
        {
          "internalType": "string",
          "name": "",
          "type": "string"
        }
      ],
      "stateMutability": "view",
      "type": "function"
    },
    {
      "inputs": [
        {
          "internalType": "address",
          "name": "from",
          "type": "address"
        },
        {
          "internalType": "address",
          "name": "to",
          "type": "address"
        },
        {
          "internalType": "uint256",
          "name": "tokenId",
          "type": "uint256"
        }
      ],
      "name": "transferFrom",
      "outputs": [],
      "stateMutability": "nonpayable",
      "type": "function"
    }
  ],
  "bytecode": "0x60806040523480156200001157600080fd5b506040518060400160405280600c81526020017f45786368616e6765204e465400000000000000000000000000000000000000008152506040518060400160405280600581526020017f45584e4654000000000000000000000000000000000000000000000000000000815250816000908051906020019062000096929190620000b8565b508060019080519060200190620000af929190620000b8565b505050620001cd565b828054620000c69062000168565b90600052602060002090601f016020900481019282620000ea576000855562000136565b82601f106200010557805160ff191683800117855562000136565b8280016001018555821562000136579182015b828111156200013557825182559160200191906001019062000118565b5b50905062000145919062000149565b5090565b5b80821115620001645760008160009055506001016200014a565b5090565b600060028204905060018216806200018157607f821691505b602082108114156200019857620001976200019e565b5b50919050565b7f4e487b7100000000000000000000000000000000000000000000000000000000600052602260045260246000fd5b612e0b80620001dd6000396000f3fe6080604052600436106100dd5760003560e01c80636af812821161007f578063a22cb46511610059578063a22cb465146102d7578063b88d4fde14610300578063c87b56dd14610329578063e985e9c514610366576100dd565b80636af812821461023f57806370a082311461026f57806395d89b41146102ac576100dd565b8063095ea7b3116100bb578063095ea7b31461018757806323b872dd146101b057806342842e0e146101d95780636352211e14610202576100dd565b806301ffc9a7146100e257806306fdde031461011f578063081812fc1461014a575b600080fd5b3480156100ee57600080fd5b5061010960048036038101906101049190611d79565b6103a3565b604051610116919061222c565b60405180910390f35b34801561012b57600080fd5b50610134610485565b6040516101419190612247565b60405180910390f35b34801561015657600080fd5b50610171600480360381019061016c9190611e32565b610517565b60405161017e91906121c5565b60405180910390f35b34801561019357600080fd5b506101ae60048036038101906101a99190611d3d565b61059c565b005b3480156101bc57600080fd5b506101d760048036038101906101d29190611c37565b6106b4565b005b3480156101e557600080fd5b5061020060048036038101906101fb9190611c37565b610714565b005b34801561020e57600080fd5b5061022960048036038101906102249190611e32565b610734565b60405161023691906121c5565b60405180910390f35b61025960048036038101906102549190611dcb565b6107e6565b60405161026691906124a9565b60405180910390f35b34801561027b57600080fd5b5061029660048036038101906102919190611bd2565b610908565b6040516102a391906124a9565b60405180910390f35b3480156102b857600080fd5b506102c16109c0565b6040516102ce9190612247565b60405180910390f35b3480156102e357600080fd5b506102fe60048036038101906102f99190611d01565b610a52565b005b34801561030c57600080fd5b5061032760048036038101906103229190611c86565b610a68565b005b34801561033557600080fd5b50610350600480360381019061034b9190611e32565b610aca565b60405161035d9190612247565b60405180910390f35b34801561037257600080fd5b5061038d60048036038101906103889190611bfb565b610c1c565b60405161039a919061222c565b60405180910390f35b60007f80ac58cd000000000000000000000000000000000000000000000000000000007bffffffffffffffffffffffffffffffffffffffffffffffffffffffff1916827bffffffffffffffffffffffffffffffffffffffffffffffffffffffff1916148061046e57507f5b5e139f000000000000000000000000000000000000000000000000000000007bffffffffffffffffffffffffffffffffffffffffffffffffffffffff1916827bffffffffffffffffffffffffffffffffffffffffffffffffffffffff1916145b8061047e575061047d82610cb0565b5b9050919050565b606060008054610494906126ff565b80601f01602080910402602001604051908101604052809291908181526020018280546104c0906126ff565b801561050d5780601f106104e25761010080835404028352916020019161050d565b820191906000526020600020905b8154815290600101906020018083116104f057829003601f168201915b5050505050905090565b600061052282610d1a565b610561576040517f08c379a000000000000000000000000000000000000000000000000000000000815260040161055890612429565b60405180910390fd5b6004600083815260200190815260200160002060009054906101000a900473ffffffffffffffffffffffffffffffffffffffff169050919050565b60006105a782610734565b90508073ffffffffffffffffffffffffffffffffffffffff168373ffffffffffffffffffffffffffffffffffffffff161415610618576040517f08c379a000000000000000000000000000000000000000000000000000000000815260040161060f90612469565b60405180910390fd5b8073ffffffffffffffffffffffffffffffffffffffff16610637610d86565b73ffffffffffffffffffffffffffffffffffffffff161480610666575061066581610660610d86565b610c1c565b5b6106a5576040517f08c379a000000000000000000000000000000000000000000000000000000000815260040161069c90612369565b60405180910390fd5b6106af8383610d8e565b505050565b6106c56106bf610d86565b82610e47565b610704576040517f08c379a00000000000000000000000000000000000000000000000000000000081526004016106fb90612489565b60405180910390fd5b61070f838383610f25565b505050565b61072f83838360405180602001604052806000815250610a68565b505050565b6000806002600084815260200190815260200160002060009054906101000a900473ffffffffffffffffffffffffffffffffffffffff169050600073ffffffffffffffffffffffffffffffffffffffff168173ffffffffffffffffffffffffffffffffffffffff1614156107dd576040517f08c379a00000000000000000000000000000000000000000000000000000000081526004016107d4906123a9565b60405180910390fd5b80915050919050565b60008073ffffffffffffffffffffffffffffffffffffffff168373ffffffffffffffffffffffffffffffffffffffff161415610857576040517f08c379a000000000000000000000000000000000000000000000000000000000815260040161084e90612329565b60405180910390fd5b600073ffffffffffffffffffffffffffffffffffffffff168273ffffffffffffffffffffffffffffffffffffffff1614156108c7576040517f08c379a00000000000000000000000000000000000000000000000000000000081526004016108be906122c9565b60405180910390fd5b60006108d3600761118c565b90506108df600761119a565b6108e983826111b0565b6108f3818661138a565b6108fd8482610d8e565b809150509392505050565b60008073ffffffffffffffffffffffffffffffffffffffff168273ffffffffffffffffffffffffffffffffffffffff161415610979576040517f08c379a000000000000000000000000000000000000000000000000000000000815260040161097090612389565b60405180910390fd5b600360008373ffffffffffffffffffffffffffffffffffffffff1673ffffffffffffffffffffffffffffffffffffffff168152602001908152602001600020549050919050565b6060600180546109cf906126ff565b80601f01602080910402602001604051908101604052809291908181526020018280546109fb906126ff565b8015610a485780601f10610a1d57610100808354040283529160200191610a48565b820191906000526020600020905b815481529060010190602001808311610a2b57829003601f168201915b5050505050905090565b610a64610a5d610d86565b83836113fe565b5050565b610a79610a73610d86565b83610e47565b610ab8576040517f08c379a0000000000000000000000000000000000000000000000000000000008152600401610aaf90612489565b60405180910390fd5b610ac48484848461156b565b50505050565b6060610ad582610d1a565b610b14576040517f08c379a0000000000000000000000000000000000000000000000000000000008152600401610b0b90612409565b60405180910390fd5b6000600660008481526020019081526020016000208054610b34906126ff565b80601f0160208091040260200160405190810160405280929190818152602001828054610b60906126ff565b8015610bad5780601f10610b8257610100808354040283529160200191610bad565b820191906000526020600020905b815481529060010190602001808311610b9057829003601f168201915b505050505090506000610bbe6115c7565b9050600081511415610bd4578192505050610c17565b600082511115610c09578082604051602001610bf19291906121a1565b60405160208183030381529060405292505050610c17565b610c12846115de565b925050505b919050565b6000600560008473ffffffffffffffffffffffffffffffffffffffff1673ffffffffffffffffffffffffffffffffffffffff16815260200190815260200160002060008373ffffffffffffffffffffffffffffffffffffffff1673ffffffffffffffffffffffffffffffffffffffff16815260200190815260200160002060009054906101000a900460ff16905092915050565b60007f01ffc9a7000000000000000000000000000000000000000000000000000000007bffffffffffffffffffffffffffffffffffffffffffffffffffffffff1916827bffffffffffffffffffffffffffffffffffffffffffffffffffffffff1916149050919050565b60008073ffffffffffffffffffffffffffffffffffffffff166002600084815260200190815260200160002060009054906101000a900473ffffffffffffffffffffffffffffffffffffffff1673ffffffffffffffffffffffffffffffffffffffff1614159050919050565b600033905090565b816004600083815260200190815260200160002060006101000a81548173ffffffffffffffffffffffffffffffffffffffff021916908373ffffffffffffffffffffffffffffffffffffffff160217905550808273ffffffffffffffffffffffffffffffffffffffff16610e0183610734565b73ffffffffffffffffffffffffffffffffffffffff167f8c5be1e5ebec7d5bd14f71427d1e84f3dd0314c0f7b2291e5b200ac8c7c3b92560405160405180910390a45050565b6000610e5282610d1a565b610e91576040517f08c379a0000000000000000000000000000000000000000000000000000000008152600401610e8890612349565b60405180910390fd5b6000610e9c83610734565b90508073ffffffffffffffffffffffffffffffffffffffff168473ffffffffffffffffffffffffffffffffffffffff161480610ede5750610edd8185610c1c565b5b80610f1c57508373ffffffffffffffffffffffffffffffffffffffff16610f0484610517565b73ffffffffffffffffffffffffffffffffffffffff16145b91505092915050565b8273ffffffffffffffffffffffffffffffffffffffff16610f4582610734565b73ffffffffffffffffffffffffffffffffffffffff1614610f9b576040517f08c379a0000000000000000000000000000000000000000000000000000000008152600401610f9290612289565b60405180910390fd5b600073ffffffffffffffffffffffffffffffffffffffff168273ffffffffffffffffffffffffffffffffffffffff16141561100b576040517f08c379a0000000000000000000000000000000000000000000000000000000008152600401611002906122e9565b60405180910390fd5b611016838383611685565b611021600082610d8e565b6001600360008573ffffffffffffffffffffffffffffffffffffffff1673ffffffffffffffffffffffffffffffffffffffff16815260200190815260200160002060008282546110719190612615565b925050819055506001600360008473ffffffffffffffffffffffffffffffffffffffff1673ffffffffffffffffffffffffffffffffffffffff16815260200190815260200160002060008282546110c8919061258e565b92505081905550816002600083815260200190815260200160002060006101000a81548173ffffffffffffffffffffffffffffffffffffffff021916908373ffffffffffffffffffffffffffffffffffffffff160217905550808273ffffffffffffffffffffffffffffffffffffffff168473ffffffffffffffffffffffffffffffffffffffff167fddf252ad1be2c89b69c2b068fc378daa952ba7f163c4a11628f55a4df523b3ef60405160405180910390a461118783838361168a565b505050565b600081600001549050919050565b6001816000016000828254019250508190555050565b600073ffffffffffffffffffffffffffffffffffffffff168273ffffffffffffffffffffffffffffffffffffffff161415611220576040517f08c379a0000000000000000000000000000000000000000000000000000000008152600401611217906123e9565b60405180910390fd5b61122981610d1a565b15611269576040517f08c379a0000000000000000000000000000000000000000000000000000000008152600401611260906122a9565b60405180910390fd5b61127560008383611685565b6001600360008473ffffffffffffffffffffffffffffffffffffffff1673ffffffffffffffffffffffffffffffffffffffff16815260200190815260200160002060008282546112c5919061258e565b92505081905550816002600083815260200190815260200160002060006101000a81548173ffffffffffffffffffffffffffffffffffffffff021916908373ffffffffffffffffffffffffffffffffffffffff160217905550808273ffffffffffffffffffffffffffffffffffffffff16600073ffffffffffffffffffffffffffffffffffffffff167fddf252ad1be2c89b69c2b068fc378daa952ba7f163c4a11628f55a4df523b3ef60405160405180910390a46113866000838361168a565b5050565b61139382610d1a565b6113d2576040517f08c379a00000000000000000000000000000000000000000000000000000000081526004016113c9906123c9565b60405180910390fd5b806006600084815260200190815260200160002090805190602001906113f99291906119f6565b505050565b8173ffffffffffffffffffffffffffffffffffffffff168373ffffffffffffffffffffffffffffffffffffffff16141561146d576040517f08c379a000000000000000000000000000000000000000000000000000000000815260040161146490612309565b60405180910390fd5b80600560008573ffffffffffffffffffffffffffffffffffffffff1673ffffffffffffffffffffffffffffffffffffffff16815260200190815260200160002060008473ffffffffffffffffffffffffffffffffffffffff1673ffffffffffffffffffffffffffffffffffffffff16815260200190815260200160002060006101000a81548160ff0219169083151502179055508173ffffffffffffffffffffffffffffffffffffffff168373ffffffffffffffffffffffffffffffffffffffff167f17307eab39ab6107e8899845ad3d59bd9653f200f220920489ca2b5937696c318360405161155e919061222c565b60405180910390a3505050565b611576848484610f25565b6115828484848461168f565b6115c1576040517f08c379a00000000000000000000000000000000000000000000000000000000081526004016115b890612269565b60405180910390fd5b50505050565b606060405180602001604052806000815250905090565b60606115e982610d1a565b611628576040517f08c379a000000000000000000000000000000000000000000000000000000000815260040161161f90612449565b60405180910390fd5b60006116326115c7565b90506000815111611652576040518060200160405280600081525061167d565b8061165c84611826565b60405160200161166d9291906121a1565b6040516020818303038152906040525b915050919050565b505050565b505050565b60006116b08473ffffffffffffffffffffffffffffffffffffffff166119d3565b15611819578373ffffffffffffffffffffffffffffffffffffffff1663150b7a026116d9610d86565b8786866040518563ffffffff1660e01b81526004016116fb94939291906121e0565b602060405180830381600087803b15801561171557600080fd5b505af192505050801561174657506040513d601f19601f820116820180604052508101906117439190611da2565b60015b6117c9573d8060008114611776576040519150601f19603f3d011682016040523d82523d6000602084013e61177b565b606091505b506000815114156117c1576040517f08c379a00000000000000000000000000000000000000000000000000000000081526004016117b890612269565b60405180910390fd5b805181602001fd5b63150b7a0260e01b7bffffffffffffffffffffffffffffffffffffffffffffffffffffffff1916817bffffffffffffffffffffffffffffffffffffffffffffffffffffffff19161491505061181e565b600190505b949350505050565b6060600082141561186e576040518060400160405280600181526020017f300000000000000000000000000000000000000000000000000000000000000081525090506119ce565b600082905060005b600082146118a057808061188990612762565b915050600a8261189991906125e4565b9150611876565b60008167ffffffffffffffff8111156118e2577f4e487b7100000000000000000000000000000000000000000000000000000000600052604160045260246000fd5b6040519080825280601f01601f1916602001820160405280156119145781602001600182028036833780820191505090505b5090505b600085146119c75760018261192d9190612615565b9150600a8561193c91906127ab565b6030611948919061258e565b60f81b818381518110611984577f4e487b7100000000000000000000000000000000000000000000000000000000600052603260045260246000fd5b60200101907effffffffffffffffffffffffffffffffffffffffffffffffffffffffffffff1916908160001a905350600a856119c091906125e4565b9450611918565b8093505050505b919050565b6000808273ffffffffffffffffffffffffffffffffffffffff163b119050919050565b828054611a02906126ff565b90600052602060002090601f016020900481019282611a245760008555611a6b565b82601f10611a3d57805160ff1916838001178555611a6b565b82800160010185558215611a6b579182015b82811115611a6a578251825591602001919060010190611a4f565b5b509050611a789190611a7c565b5090565b5b80821115611a95576000816000905550600101611a7d565b5090565b6000611aac611aa7846124e9565b6124c4565b905082815260208101848484011115611ac457600080fd5b611acf8482856126bd565b509392505050565b6000611aea611ae58461251a565b6124c4565b905082815260208101848484011115611b0257600080fd5b611b0d8482856126bd565b509392505050565b600081359050611b2481612d79565b92915050565b600081359050611b3981612d90565b92915050565b600081359050611b4e81612da7565b92915050565b600081519050611b6381612da7565b92915050565b600082601f830112611b7a57600080fd5b8135611b8a848260208601611a99565b91505092915050565b600082601f830112611ba457600080fd5b8135611bb4848260208601611ad7565b91505092915050565b600081359050611bcc81612dbe565b92915050565b600060208284031215611be457600080fd5b6000611bf284828501611b15565b91505092915050565b60008060408385031215611c0e57600080fd5b6000611c1c85828601611b15565b9250506020611c2d85828601611b15565b9150509250929050565b600080600060608486031215611c4c57600080fd5b6000611c5a86828701611b15565b9350506020611c6b86828701611b15565b9250506040611c7c86828701611bbd565b9150509250925092565b60008060008060808587031215611c9c57600080fd5b6000611caa87828801611b15565b9450506020611cbb87828801611b15565b9350506040611ccc87828801611bbd565b925050606085013567ffffffffffffffff811115611ce957600080fd5b611cf587828801611b69565b91505092959194509250565b60008060408385031215611d1457600080fd5b6000611d2285828601611b15565b9250506020611d3385828601611b2a565b9150509250929050565b60008060408385031215611d5057600080fd5b6000611d5e85828601611b15565b9250506020611d6f85828601611bbd565b9150509250929050565b600060208284031215611d8b57600080fd5b6000611d9984828501611b3f565b91505092915050565b600060208284031215611db457600080fd5b6000611dc284828501611b54565b91505092915050565b600080600060608486031215611de057600080fd5b600084013567ffffffffffffffff811115611dfa57600080fd5b611e0686828701611b93565b9350506020611e1786828701611b15565b9250506040611e2886828701611b15565b9150509250925092565b600060208284031215611e4457600080fd5b6000611e5284828501611bbd565b91505092915050565b611e6481612649565b82525050565b611e738161265b565b82525050565b6000611e848261254b565b611e8e8185612561565b9350611e9e8185602086016126cc565b611ea781612898565b840191505092915050565b6000611ebd82612556565b611ec78185612572565b9350611ed78185602086016126cc565b611ee081612898565b840191505092915050565b6000611ef682612556565b611f008185612583565b9350611f108185602086016126cc565b80840191505092915050565b6000611f29603283612572565b9150611f34826128a9565b604082019050919050565b6000611f4c602583612572565b9150611f57826128f8565b604082019050919050565b6000611f6f601c83612572565b9150611f7a82612947565b602082019050919050565b6000611f92601d83612572565b9150611f9d82612970565b602082019050919050565b6000611fb5602483612572565b9150611fc082612999565b604082019050919050565b6000611fd8601983612572565b9150611fe3826129e8565b602082019050919050565b6000611ffb601583612572565b915061200682612a11565b602082019050919050565b600061201e602c83612572565b915061202982612a3a565b604082019050919050565b6000612041603883612572565b915061204c82612a89565b604082019050919050565b6000612064602a83612572565b915061206f82612ad8565b604082019050919050565b6000612087602983612572565b915061209282612b27565b604082019050919050565b60006120aa602e83612572565b91506120b582612b76565b604082019050919050565b60006120cd602083612572565b91506120d882612bc5565b602082019050919050565b60006120f0603183612572565b91506120fb82612bee565b604082019050919050565b6000612113602c83612572565b915061211e82612c3d565b604082019050919050565b6000612136602f83612572565b915061214182612c8c565b604082019050919050565b6000612159602183612572565b915061216482612cdb565b604082019050919050565b600061217c603183612572565b915061218782612d2a565b604082019050919050565b61219b816126b3565b82525050565b60006121ad8285611eeb565b91506121b98284611eeb565b91508190509392505050565b60006020820190506121da6000830184611e5b565b92915050565b60006080820190506121f56000830187611e5b565b6122026020830186611e5b565b61220f6040830185612192565b81810360608301526122218184611e79565b905095945050505050565b60006020820190506122416000830184611e6a565b92915050565b600060208201905081810360008301526122618184611eb2565b905092915050565b6000602082019050818103600083015261228281611f1c565b9050919050565b600060208201905081810360008301526122a281611f3f565b9050919050565b600060208201905081810360008301526122c281611f62565b9050919050565b600060208201905081810360008301526122e281611f85565b9050919050565b6000602082019050818103600083015261230281611fa8565b9050919050565b6000602082019050818103600083015261232281611fcb565b9050919050565b6000602082019050818103600083015261234281611fee565b9050919050565b6000602082019050818103600083015261236281612011565b9050919050565b6000602082019050818103600083015261238281612034565b9050919050565b600060208201905081810360008301526123a281612057565b9050919050565b600060208201905081810360008301526123c28161207a565b9050919050565b600060208201905081810360008301526123e28161209d565b9050919050565b60006020820190508181036000830152612402816120c0565b9050919050565b60006020820190508181036000830152612422816120e3565b9050919050565b6000602082019050818103600083015261244281612106565b9050919050565b6000602082019050818103600083015261246281612129565b9050919050565b600060208201905081810360008301526124828161214c565b9050919050565b600060208201905081810360008301526124a28161216f565b9050919050565b60006020820190506124be6000830184612192565b92915050565b60006124ce6124df565b90506124da8282612731565b919050565b6000604051905090565b600067ffffffffffffffff82111561250457612503612869565b5b61250d82612898565b9050602081019050919050565b600067ffffffffffffffff82111561253557612534612869565b5b61253e82612898565b9050602081019050919050565b600081519050919050565b600081519050919050565b600082825260208201905092915050565b600082825260208201905092915050565b600081905092915050565b6000612599826126b3565b91506125a4836126b3565b9250827fffffffffffffffffffffffffffffffffffffffffffffffffffffffffffffffff038211156125d9576125d86127dc565b5b828201905092915050565b60006125ef826126b3565b91506125fa836126b3565b92508261260a5761260961280b565b5b828204905092915050565b6000612620826126b3565b915061262b836126b3565b92508282101561263e5761263d6127dc565b5b828203905092915050565b600061265482612693565b9050919050565b60008115159050919050565b60007fffffffff0000000000000000000000000000000000000000000000000000000082169050919050565b600073ffffffffffffffffffffffffffffffffffffffff82169050919050565b6000819050919050565b82818337600083830152505050565b60005b838110156126ea5780820151818401526020810190506126cf565b838111156126f9576000848401525b50505050565b6000600282049050600182168061271757607f821691505b6020821081141561272b5761272a61283a565b5b50919050565b61273a82612898565b810181811067ffffffffffffffff8211171561275957612758612869565b5b80604052505050565b600061276d826126b3565b91507fffffffffffffffffffffffffffffffffffffffffffffffffffffffffffffffff8214156127a05761279f6127dc565b5b600182019050919050565b60006127b6826126b3565b91506127c1836126b3565b9250826127d1576127d061280b565b5b828206905092915050565b7f4e487b7100000000000000000000000000000000000000000000000000000000600052601160045260246000fd5b7f4e487b7100000000000000000000000000000000000000000000000000000000600052601260045260246000fd5b7f4e487b7100000000000000000000000000000000000000000000000000000000600052602260045260246000fd5b7f4e487b7100000000000000000000000000000000000000000000000000000000600052604160045260246000fd5b6000601f19601f8301169050919050565b7f4552433732313a207472616e7366657220746f206e6f6e20455243373231526560008201527f63656976657220696d706c656d656e7465720000000000000000000000000000602082015250565b7f4552433732313a207472616e736665722066726f6d20696e636f72726563742060008201527f6f776e6572000000000000000000000000000000000000000000000000000000602082015250565b7f4552433732313a20746f6b656e20616c7265616479206d696e74656400000000600082015250565b7f456e74657220612076616c69642063726561746f722061646472657373000000600082015250565b7f4552433732313a207472616e7366657220746f20746865207a65726f2061646460008201527f7265737300000000000000000000000000000000000000000000000000000000602082015250565b7f4552433732313a20617070726f766520746f2063616c6c657200000000000000600082015250565b7f456e74657220612076616c696420616464726573730000000000000000000000600082015250565b7f4552433732313a206f70657261746f7220717565727920666f72206e6f6e657860008201527f697374656e7420746f6b656e0000000000000000000000000000000000000000602082015250565b7f4552433732313a20617070726f76652063616c6c6572206973206e6f74206f7760008201527f6e6572206e6f7220617070726f76656420666f7220616c6c0000000000000000602082015250565b7f4552433732313a2062616c616e636520717565727920666f7220746865207a6560008201527f726f206164647265737300000000000000000000000000000000000000000000602082015250565b7f4552433732313a206f776e657220717565727920666f72206e6f6e657869737460008201527f656e7420746f6b656e0000000000000000000000000000000000000000000000602082015250565b7f45524337323155524953746f726167653a2055524920736574206f66206e6f6e60008201527f6578697374656e7420746f6b656e000000000000000000000000000000000000602082015250565b7f4552433732313a206d696e7420746f20746865207a65726f2061646472657373600082015250565b7f45524337323155524953746f726167653a2055524920717565727920666f722060008201527f6e6f6e6578697374656e7420746f6b656e000000000000000000000000000000602082015250565b7f4552433732313a20617070726f76656420717565727920666f72206e6f6e657860008201527f697374656e7420746f6b656e0000000000000000000000000000000000000000602082015250565b7f4552433732314d657461646174613a2055524920717565727920666f72206e6f60008201527f6e6578697374656e7420746f6b656e0000000000000000000000000000000000602082015250565b7f4552433732313a20617070726f76616c20746f2063757272656e74206f776e6560008201527f7200000000000000000000000000000000000000000000000000000000000000602082015250565b7f4552433732313a207472616e736665722063616c6c6572206973206e6f74206f60008201527f776e6572206e6f7220617070726f766564000000000000000000000000000000602082015250565b612d8281612649565b8114612d8d57600080fd5b50565b612d998161265b565b8114612da457600080fd5b50565b612db081612667565b8114612dbb57600080fd5b50565b612dc7816126b3565b8114612dd257600080fd5b5056fea26469706673582212203855089419e73411968765efa588a4015dfbc516fff8ea3e9386275776a7200164736f6c63430008040033",
  "linkReferences": {},
  "deployedLinkReferences": {}
}