{
  "_format": "hh-sol-artifact-1",
  "contractName": "NFTMarket",
  "sourceName": "contracts/NFTMarket.sol",
  "abi": [
    {
      "inputs": [
        {
          "internalType": "uint256",
          "name": "_tokenId",
          "type": "uint256"
        }
      ],
      "name": "buyItem",
      "outputs": [],
      "stateMutability": "payable",
      "type": "function"
    },
    {
      "inputs": [
        {
          "internalType": "uint256",
          "name": "_tokenId",
          "type": "uint256"
        }
      ],
      "name": "cancelSell",
      "outputs": [],
      "stateMutability": "nonpayable",
      "type": "function"
    },
    {
      "inputs": [],
      "name": "pause",
      "outputs": [],
      "stateMutability": "nonpayable",
      "type": "function"
    },
    {
      "inputs": [
        {
          "internalType": "string",
          "name": "uri",
          "type": "string"
        },
        {
          "internalType": "uint256",
          "name": "_price",
          "type": "uint256"
        },
        {
          "internalType": "address",
          "name": "_nftContract",
          "type": "address"
        }
      ],
      "name": "sellItem",
      "outputs": [],
      "stateMutability": "payable",
      "type": "function"
    },
    {
      "inputs": [],
      "stateMutability": "nonpayable",
      "type": "constructor"
    },
    {
      "anonymous": false,
      "inputs": [
        {
          "indexed": false,
          "internalType": "uint256",
          "name": "token",
          "type": "uint256"
        },
        {
          "indexed": false,
          "internalType": "address",
          "name": "owner",
          "type": "address"
        }
      ],
      "name": "CancelSell",
      "type": "event"
    },
    {
      "anonymous": false,
      "inputs": [
        {
          "indexed": false,
          "internalType": "address",
          "name": "nftContract",
          "type": "address"
        },
        {
          "indexed": false,
          "internalType": "address",
          "name": "owner",
          "type": "address"
        },
        {
          "indexed": false,
          "internalType": "address",
          "name": "creator",
          "type": "address"
        },
        {
          "indexed": false,
          "internalType": "uint256",
          "name": "token",
          "type": "uint256"
        },
        {
          "indexed": false,
          "internalType": "uint256",
          "name": "price",
          "type": "uint256"
        }
      ],
      "name": "Item",
      "type": "event"
    },
    {
      "anonymous": false,
      "inputs": [
        {
          "indexed": false,
          "internalType": "address",
          "name": "nftContract",
          "type": "address"
        },
        {
          "indexed": false,
          "internalType": "address",
          "name": "owner",
          "type": "address"
        },
        {
          "indexed": false,
          "internalType": "address",
          "name": "creator",
          "type": "address"
        },
        {
          "indexed": false,
          "internalType": "uint256",
          "name": "token",
          "type": "uint256"
        },
        {
          "indexed": false,
          "internalType": "uint256",
          "name": "price",
          "type": "uint256"
        }
      ],
      "name": "Sold",
      "type": "event"
    },
    {
      "inputs": [],
      "name": "unPause",
      "outputs": [],
      "stateMutability": "nonpayable",
      "type": "function"
    },
    {
      "inputs": [],
      "name": "fetchCreatorItemsListed",
      "outputs": [
        {
          "components": [
            {
              "internalType": "enum NFTMarket.ListingStatus",
              "name": "status",
              "type": "uint8"
            },
            {
              "internalType": "address",
              "name": "nftContract",
              "type": "address"
            },
            {
              "internalType": "address payable",
              "name": "owner",
              "type": "address"
            },
            {
              "internalType": "address payable",
              "name": "creator",
              "type": "address"
            },
            {
              "internalType": "uint256",
              "name": "token",
              "type": "uint256"
            },
            {
              "internalType": "uint256",
              "name": "price",
              "type": "uint256"
            }
          ],
          "internalType": "struct NFTMarket._Item[]",
          "name": "",
          "type": "tuple[]"
        }
      ],
      "stateMutability": "view",
      "type": "function"
    },
    {
      "inputs": [],
      "name": "fetchMarketItems",
      "outputs": [
        {
          "components": [
            {
              "internalType": "enum NFTMarket.ListingStatus",
              "name": "status",
              "type": "uint8"
            },
            {
              "internalType": "address",
              "name": "nftContract",
              "type": "address"
            },
            {
              "internalType": "address payable",
              "name": "owner",
              "type": "address"
            },
            {
              "internalType": "address payable",
              "name": "creator",
              "type": "address"
            },
            {
              "internalType": "uint256",
              "name": "token",
              "type": "uint256"
            },
            {
              "internalType": "uint256",
              "name": "price",
              "type": "uint256"
            }
          ],
          "internalType": "struct NFTMarket._Item[]",
          "name": "",
          "type": "tuple[]"
        }
      ],
      "stateMutability": "view",
      "type": "function"
    },
    {
      "inputs": [],
      "name": "fetchOwnerItemsListed",
      "outputs": [
        {
          "components": [
            {
              "internalType": "enum NFTMarket.ListingStatus",
              "name": "status",
              "type": "uint8"
            },
            {
              "internalType": "address",
              "name": "nftContract",
              "type": "address"
            },
            {
              "internalType": "address payable",
              "name": "owner",
              "type": "address"
            },
            {
              "internalType": "address payable",
              "name": "creator",
              "type": "address"
            },
            {
              "internalType": "uint256",
              "name": "token",
              "type": "uint256"
            },
            {
              "internalType": "uint256",
              "name": "price",
              "type": "uint256"
            }
          ],
          "internalType": "struct NFTMarket._Item[]",
          "name": "",
          "type": "tuple[]"
        }
      ],
      "stateMutability": "view",
      "type": "function"
    },
    {
      "inputs": [
        {
          "internalType": "uint256",
          "name": "",
          "type": "uint256"
        }
      ],
      "name": "Items",
      "outputs": [
        {
          "internalType": "enum NFTMarket.ListingStatus",
          "name": "status",
          "type": "uint8"
        },
        {
          "internalType": "address",
          "name": "nftContract",
          "type": "address"
        },
        {
          "internalType": "address payable",
          "name": "owner",
          "type": "address"
        },
        {
          "internalType": "address payable",
          "name": "creator",
          "type": "address"
        },
        {
          "internalType": "uint256",
          "name": "token",
          "type": "uint256"
        },
        {
          "internalType": "uint256",
          "name": "price",
          "type": "uint256"
        }
      ],
      "stateMutability": "view",
      "type": "function"
    },
    {
      "inputs": [],
      "name": "mintingCost",
      "outputs": [
        {
          "internalType": "uint256",
          "name": "",
          "type": "uint256"
        }
      ],
      "stateMutability": "view",
      "type": "function"
    }
  ],
  "bytecode": "0x6080604052655af3107a400060045534801561001a57600080fd5b50600160008190555033600360006101000a81548173ffffffffffffffffffffffffffffffffffffffff021916908373ffffffffffffffffffffffffffffffffffffffff160217905550612bd5806100736000396000f3fe60806040526004361061007b5760003560e01c8063ae8ef20a1161004e578063ae8ef20a14610141578063e7fb74c71461015d578063ebf98abf14610179578063fc50b5d3146101a45761007b565b806307c9cd45146100805780630f08efe0146100a957806317b47cc4146100d45780635c90fc6614610116575b600080fd5b34801561008c57600080fd5b506100a760048036038101906100a29190611e32565b6101cf565b005b3480156100b557600080fd5b506100be61052b565b6040516100cb9190612311565b60405180910390f35b3480156100e057600080fd5b506100fb60048036038101906100f69190611e32565b610923565b60405161010d96959493929190612333565b60405180910390f35b34801561012257600080fd5b5061012b6109cc565b6040516101389190612311565b60405180910390f35b61015b60048036038101906101569190611dcb565b610dc9565b005b61017760048036038101906101729190611e32565b61130c565b005b34801561018557600080fd5b5061018e61184d565b60405161019b9190612572565b60405180910390f35b3480156101b057600080fd5b506101b9611853565b6040516101c69190612311565b60405180910390f35b806000811015610214576040517f08c379a000000000000000000000000000000000000000000000000000000000815260040161020b90612452565b60405180910390fd5b60006005600084815260200190815260200160002090508060010160009054906101000a900473ffffffffffffffffffffffffffffffffffffffff1673ffffffffffffffffffffffffffffffffffffffff163373ffffffffffffffffffffffffffffffffffffffff1614806102d857508060020160009054906101000a900473ffffffffffffffffffffffffffffffffffffffff1673ffffffffffffffffffffffffffffffffffffffff163373ffffffffffffffffffffffffffffffffffffffff16145b610317576040517f08c379a000000000000000000000000000000000000000000000000000000000815260040161030e90612552565b60405180910390fd5b60006002811115610351577f4e487b7100000000000000000000000000000000000000000000000000000000600052602160045260246000fd5b8160000160009054906101000a900460ff16600281111561039b577f4e487b7100000000000000000000000000000000000000000000000000000000600052602160045260246000fd5b146103db576040517f08c379a00000000000000000000000000000000000000000000000000000000081526004016103d290612492565b60405180910390fd5b60028160000160006101000a81548160ff02191690836002811115610429577f4e487b7100000000000000000000000000000000000000000000000000000000600052602160045260246000fd5b02179055508060000160019054906101000a900473ffffffffffffffffffffffffffffffffffffffff1673ffffffffffffffffffffffffffffffffffffffff166323b872dd303384600301546040518463ffffffff1660e01b8152600401610493939291906122da565b600060405180830381600087803b1580156104ad57600080fd5b505af11580156104c1573d6000803e3d6000fd5b505050507f9a7ead5b5e3d6b8d3e88f6057599b7eecec51b2aad38c25b8141deaec6dcabc381600301548260010160009054906101000a900473ffffffffffffffffffffffffffffffffffffffff1660405161051e92919061258d565b60405180910390a1505050565b606060006105396001611c50565b905060006105476002611c50565b6105516001611c50565b61055b91906126c2565b90506000808267ffffffffffffffff8111156105a0577f4e487b7100000000000000000000000000000000000000000000000000000000600052604160045260246000fd5b6040519080825280602002602001820160405280156105d957816020015b6105c6611c74565b8152602001906001900390816105be5790505b50905060005b84811015610918573073ffffffffffffffffffffffffffffffffffffffff166005600083815260200190815260200160002060010160009054906101000a900473ffffffffffffffffffffffffffffffffffffffff1673ffffffffffffffffffffffffffffffffffffffff161480156106eb57506000600281111561068d577f4e487b7100000000000000000000000000000000000000000000000000000000600052602160045260246000fd5b6005600083815260200190815260200160002060000160009054906101000a900460ff1660028111156106e9577f4e487b7100000000000000000000000000000000000000000000000000000000600052602160045260246000fd5b145b15610905576000600560008381526020019081526020016000209050806040518060c00160405290816000820160009054906101000a900460ff16600281111561075e577f4e487b7100000000000000000000000000000000000000000000000000000000600052602160045260246000fd5b6002811115610796577f4e487b7100000000000000000000000000000000000000000000000000000000600052602160045260246000fd5b81526020016000820160019054906101000a900473ffffffffffffffffffffffffffffffffffffffff1673ffffffffffffffffffffffffffffffffffffffff1673ffffffffffffffffffffffffffffffffffffffff1681526020016001820160009054906101000a900473ffffffffffffffffffffffffffffffffffffffff1673ffffffffffffffffffffffffffffffffffffffff1673ffffffffffffffffffffffffffffffffffffffff1681526020016002820160009054906101000a900473ffffffffffffffffffffffffffffffffffffffff1673ffffffffffffffffffffffffffffffffffffffff1673ffffffffffffffffffffffffffffffffffffffff168152602001600382015481526020016004820154815250508385815181106108e9577f4e487b7100000000000000000000000000000000000000000000000000000000600052603260045260246000fd5b6020026020010181905250600184610901919061266c565b9350505b808061091090612812565b9150506105df565b508094505050505090565b60056020528060005260406000206000915090508060000160009054906101000a900460ff16908060000160019054906101000a900473ffffffffffffffffffffffffffffffffffffffff16908060010160009054906101000a900473ffffffffffffffffffffffffffffffffffffffff16908060020160009054906101000a900473ffffffffffffffffffffffffffffffffffffffff16908060030154908060040154905086565b60606000600760003373ffffffffffffffffffffffffffffffffffffffff1673ffffffffffffffffffffffffffffffffffffffff1681526020019081526020016000205411610a50576040517f08c379a0000000000000000000000000000000000000000000000000000000008152600401610a47906124d2565b60405180910390fd5b6000610a5c6001611c50565b90506000600760003373ffffffffffffffffffffffffffffffffffffffff1673ffffffffffffffffffffffffffffffffffffffff1681526020019081526020016000205490506000808267ffffffffffffffff811115610ae5577f4e487b7100000000000000000000000000000000000000000000000000000000600052604160045260246000fd5b604051908082528060200260200182016040528015610b1e57816020015b610b0b611c74565b815260200190600190039081610b035790505b50905060005b84811015610dbe573373ffffffffffffffffffffffffffffffffffffffff166005600083815260200190815260200160002060010160009054906101000a900473ffffffffffffffffffffffffffffffffffffffff1673ffffffffffffffffffffffffffffffffffffffff161415610dab576000600560008381526020019081526020016000209050806040518060c00160405290816000820160009054906101000a900460ff166002811115610c04577f4e487b7100000000000000000000000000000000000000000000000000000000600052602160045260246000fd5b6002811115610c3c577f4e487b7100000000000000000000000000000000000000000000000000000000600052602160045260246000fd5b81526020016000820160019054906101000a900473ffffffffffffffffffffffffffffffffffffffff1673ffffffffffffffffffffffffffffffffffffffff1673ffffffffffffffffffffffffffffffffffffffff1681526020016001820160009054906101000a900473ffffffffffffffffffffffffffffffffffffffff1673ffffffffffffffffffffffffffffffffffffffff1673ffffffffffffffffffffffffffffffffffffffff1681526020016002820160009054906101000a900473ffffffffffffffffffffffffffffffffffffffff1673ffffffffffffffffffffffffffffffffffffffff1673ffffffffffffffffffffffffffffffffffffffff16815260200160038201548152602001600482015481525050838581518110610d8f577f4e487b7100000000000000000000000000000000000000000000000000000000600052603260045260246000fd5b6020026020010181905250600184610da7919061266c565b9350505b8080610db690612812565b915050610b24565b508094505050505090565b60026000541415610e0f576040517f08c379a0000000000000000000000000000000000000000000000000000000008152600401610e0690612512565b60405180910390fd5b600260008190555060008211610e5a576040517f08c379a0000000000000000000000000000000000000000000000000000000008152600401610e5190612532565b60405180910390fd5b6004543414610e9e576040517f08c379a0000000000000000000000000000000000000000000000000000000008152600401610e95906123f2565b60405180910390fd5b600073ffffffffffffffffffffffffffffffffffffffff168173ffffffffffffffffffffffffffffffffffffffff161415610f0e576040517f08c379a0000000000000000000000000000000000000000000000000000000008152600401610f0590612432565b60405180910390fd5b6000835111610f52576040517f08c379a0000000000000000000000000000000000000000000000000000000008152600401610f4990612412565b60405180910390fd5b6000610f5e6001611c50565b9050610f6a6001611c5e565b600660003373ffffffffffffffffffffffffffffffffffffffff1673ffffffffffffffffffffffffffffffffffffffff1681526020019081526020016000206000815480929190610fba90612812565b919050555060008273ffffffffffffffffffffffffffffffffffffffff16636af812828630336040518463ffffffff1660e01b8152600401610ffe93929190612394565b602060405180830381600087803b15801561101857600080fd5b505af115801561102c573d6000803e3d6000fd5b505050506040513d601f19601f820116820180604052508101906110509190611e5b565b90506040518060c0016040528060006002811115611097577f4e487b7100000000000000000000000000000000000000000000000000000000600052602160045260246000fd5b81526020018473ffffffffffffffffffffffffffffffffffffffff1681526020013073ffffffffffffffffffffffffffffffffffffffff1681526020013373ffffffffffffffffffffffffffffffffffffffff168152602001828152602001858152506005600084815260200190815260200160002060008201518160000160006101000a81548160ff0219169083600281111561115e577f4e487b7100000000000000000000000000000000000000000000000000000000600052602160045260246000fd5b021790555060208201518160000160016101000a81548173ffffffffffffffffffffffffffffffffffffffff021916908373ffffffffffffffffffffffffffffffffffffffff16021790555060408201518160010160006101000a81548173ffffffffffffffffffffffffffffffffffffffff021916908373ffffffffffffffffffffffffffffffffffffffff16021790555060608201518160020160006101000a81548173ffffffffffffffffffffffffffffffffffffffff021916908373ffffffffffffffffffffffffffffffffffffffff1602179055506080820151816003015560a082015181600401559050508273ffffffffffffffffffffffffffffffffffffffff166323b872dd3330846040518463ffffffff1660e01b815260040161128c939291906122da565b600060405180830381600087803b1580156112a657600080fd5b505af11580156112ba573d6000803e3d6000fd5b505050507f14119be79c3c72a43e018782c3768e0f129fd3c6b43e7fd40c621cfd78c5518083303384886040516112f5959493929190612234565b60405180910390a150506001600081905550505050565b806000811015611351576040517f08c379a000000000000000000000000000000000000000000000000000000000815260040161134890612452565b60405180910390fd5b60026000541415611397576040517f08c379a000000000000000000000000000000000000000000000000000000000815260040161138e90612512565b60405180910390fd5b60026000819055506000600560008481526020019081526020016000209050348160040154146113fc576040517f08c379a00000000000000000000000000000000000000000000000000000000081526004016113f3906123d2565b60405180910390fd5b338160010160006101000a81548173ffffffffffffffffffffffffffffffffffffffff021916908373ffffffffffffffffffffffffffffffffffffffff16021790555060018160000160006101000a81548160ff0219169083600281111561148d577f4e487b7100000000000000000000000000000000000000000000000000000000600052602160045260246000fd5b0217905550600760003373ffffffffffffffffffffffffffffffffffffffff1673ffffffffffffffffffffffffffffffffffffffff16815260200190815260200160002060008154809291906114e290612812565b919050555060008160020160009054906101000a900473ffffffffffffffffffffffffffffffffffffffff169050600073ffffffffffffffffffffffffffffffffffffffff168260010160009054906101000a900473ffffffffffffffffffffffffffffffffffffffff1673ffffffffffffffffffffffffffffffffffffffff161415611591578160010160009054906101000a900473ffffffffffffffffffffffffffffffffffffffff1690505b60008173ffffffffffffffffffffffffffffffffffffffff16346040516115b79061221f565b60006040518083038185875af1925050503d80600081146115f4576040519150601f19603f3d011682016040523d82523d6000602084013e6115f9565b606091505b505090508061163d576040517f08c379a0000000000000000000000000000000000000000000000000000000008152600401611634906124b2565b60405180910390fd5b6116476002611c5e565b8260000160019054906101000a900473ffffffffffffffffffffffffffffffffffffffff1673ffffffffffffffffffffffffffffffffffffffff166323b872dd303386600301546040518463ffffffff1660e01b81526004016116ac939291906122da565b600060405180830381600087803b1580156116c657600080fd5b505af11580156116da573d6000803e3d6000fd5b505050506000600360009054906101000a900473ffffffffffffffffffffffffffffffffffffffff1673ffffffffffffffffffffffffffffffffffffffff166004546040516117289061221f565b60006040518083038185875af1925050503d8060008114611765576040519150601f19603f3d011682016040523d82523d6000602084013e61176a565b606091505b50509050806117ae576040517f08c379a00000000000000000000000000000000000000000000000000000000081526004016117a5906124f2565b60405180910390fd5b7f5764dbcef91eb6f946584f4ea671217c686fa7e858ce4f9f42d08422b86556a98460000160019054906101000a900473ffffffffffffffffffffffffffffffffffffffff16338660020160009054906101000a900473ffffffffffffffffffffffffffffffffffffffff1687600301548860040154604051611835959493929190612287565b60405180910390a15050505060016000819055505050565b60045481565b60606000600660003373ffffffffffffffffffffffffffffffffffffffff1673ffffffffffffffffffffffffffffffffffffffff16815260200190815260200160002054116118d7576040517f08c379a00000000000000000000000000000000000000000000000000000000081526004016118ce90612472565b60405180910390fd5b60006118e36001611c50565b90506000600660003373ffffffffffffffffffffffffffffffffffffffff1673ffffffffffffffffffffffffffffffffffffffff16815260200190815260200160002054905060008167ffffffffffffffff81111561196b577f4e487b7100000000000000000000000000000000000000000000000000000000600052604160045260246000fd5b6040519080825280602002602001820160405280156119a457816020015b611991611c74565b8152602001906001900390816119895790505b5090506000805b84811015611c45573373ffffffffffffffffffffffffffffffffffffffff166005600083815260200190815260200160002060020160009054906101000a900473ffffffffffffffffffffffffffffffffffffffff1673ffffffffffffffffffffffffffffffffffffffff161415611c32576000600560008381526020019081526020016000209050806040518060c00160405290816000820160009054906101000a900460ff166002811115611a8b577f4e487b7100000000000000000000000000000000000000000000000000000000600052602160045260246000fd5b6002811115611ac3577f4e487b7100000000000000000000000000000000000000000000000000000000600052602160045260246000fd5b81526020016000820160019054906101000a900473ffffffffffffffffffffffffffffffffffffffff1673ffffffffffffffffffffffffffffffffffffffff1673ffffffffffffffffffffffffffffffffffffffff1681526020016001820160009054906101000a900473ffffffffffffffffffffffffffffffffffffffff1673ffffffffffffffffffffffffffffffffffffffff1673ffffffffffffffffffffffffffffffffffffffff1681526020016002820160009054906101000a900473ffffffffffffffffffffffffffffffffffffffff1673ffffffffffffffffffffffffffffffffffffffff1673ffffffffffffffffffffffffffffffffffffffff16815260200160038201548152602001600482015481525050848481518110611c16577f4e487b7100000000000000000000000000000000000000000000000000000000600052603260045260246000fd5b6020026020010181905250600183611c2e919061266c565b9250505b8080611c3d90612812565b9150506119ab565b508194505050505090565b600081600001549050919050565b6001816000016000828254019250508190555050565b6040518060c0016040528060006002811115611cb9577f4e487b7100000000000000000000000000000000000000000000000000000000600052602160045260246000fd5b8152602001600073ffffffffffffffffffffffffffffffffffffffff168152602001600073ffffffffffffffffffffffffffffffffffffffff168152602001600073ffffffffffffffffffffffffffffffffffffffff16815260200160008152602001600081525090565b6000611d37611d32846125db565b6125b6565b905082815260208101848484011115611d4f57600080fd5b611d5a84828561279f565b509392505050565b600081359050611d7181612b71565b92915050565b600082601f830112611d8857600080fd5b8135611d98848260208601611d24565b91505092915050565b600081359050611db081612b88565b92915050565b600081519050611dc581612b88565b92915050565b600080600060608486031215611de057600080fd5b600084013567ffffffffffffffff811115611dfa57600080fd5b611e0686828701611d77565b9350506020611e1786828701611da1565b9250506040611e2886828701611d62565b9150509250925092565b600060208284031215611e4457600080fd5b6000611e5284828501611da1565b91505092915050565b600060208284031215611e6d57600080fd5b6000611e7b84828501611db6565b91505092915050565b6000611e908383612186565b60c08301905092915050565b611ea581612757565b82525050565b611eb481612708565b82525050565b611ec381612708565b82525050565b611ed2816126f6565b82525050565b611ee1816126f6565b82525050565b6000611ef28261261c565b611efc818561263f565b9350611f078361260c565b8060005b83811015611f38578151611f1f8882611e84565b9750611f2a83612632565b925050600181019050611f0b565b5085935050505092915050565b611f4e81612769565b82525050565b611f5d81612769565b82525050565b6000611f6e82612627565b611f78818561265b565b9350611f888185602086016127ae565b611f91816128e8565b840191505092915050565b6000611fa960208361265b565b9150611fb4826128f9565b602082019050919050565b6000611fcc601d8361265b565b9150611fd782612922565b602082019050919050565b6000611fef60118361265b565b9150611ffa8261294b565b602082019050919050565b600061201260218361265b565b915061201d82612974565b604082019050919050565b600061203560158361265b565b9150612040826129c3565b602082019050919050565b600061205860228361265b565b9150612063826129ec565b604082019050919050565b600061207b60158361265b565b915061208682612a3b565b602082019050919050565b600061209e601a8361265b565b91506120a982612a64565b602082019050919050565b60006120c1600083612650565b91506120cc82612a8d565b600082019050919050565b60006120e4601a8361265b565b91506120ef82612a90565b602082019050919050565b6000612107601b8361265b565b915061211282612ab9565b602082019050919050565b600061212a601f8361265b565b915061213582612ae2565b602082019050919050565b600061214d601c8361265b565b915061215882612b0b565b602082019050919050565b6000612170601d8361265b565b915061217b82612b34565b602082019050919050565b60c08201600082015161219c6000850182611f45565b5060208201516121af6020850182611ec9565b5060408201516121c26040850182611eab565b5060608201516121d56060850182611eab565b5060808201516121e86080850182612201565b5060a08201516121fb60a0850182612201565b50505050565b61220a8161274d565b82525050565b6122198161274d565b82525050565b600061222a826120b4565b9150819050919050565b600060a0820190506122496000830188611ed8565b6122566020830187611e9c565b6122636040830186611e9c565b6122706060830185612210565b61227d6080830184612210565b9695505050505050565b600060a08201905061229c6000830188611ed8565b6122a96020830187611ed8565b6122b66040830186611e9c565b6122c36060830185612210565b6122d06080830184612210565b9695505050505050565b60006060820190506122ef6000830186611ed8565b6122fc6020830185611ed8565b6123096040830184612210565b949350505050565b6000602082019050818103600083015261232b8184611ee7565b905092915050565b600060c0820190506123486000830189611f54565b6123556020830188611ed8565b6123626040830187611eba565b61236f6060830186611eba565b61237c6080830185612210565b61238960a0830184612210565b979650505050505050565b600060608201905081810360008301526123ae8186611f63565b90506123bd6020830185611ed8565b6123ca6040830184611ed8565b949350505050565b600060208201905081810360008301526123eb81611f9c565b9050919050565b6000602082019050818103600083015261240b81611fbf565b9050919050565b6000602082019050818103600083015261242b81611fe2565b9050919050565b6000602082019050818103600083015261244b81612005565b9050919050565b6000602082019050818103600083015261246b81612028565b9050919050565b6000602082019050818103600083015261248b8161204b565b9050919050565b600060208201905081810360008301526124ab8161206e565b9050919050565b600060208201905081810360008301526124cb81612091565b9050919050565b600060208201905081810360008301526124eb816120d7565b9050919050565b6000602082019050818103600083015261250b816120fa565b9050919050565b6000602082019050818103600083015261252b8161211d565b9050919050565b6000602082019050818103600083015261254b81612140565b9050919050565b6000602082019050818103600083015261256b81612163565b9050919050565b60006020820190506125876000830184612210565b92915050565b60006040820190506125a26000830185612210565b6125af6020830184611e9c565b9392505050565b60006125c06125d1565b90506125cc82826127e1565b919050565b6000604051905090565b600067ffffffffffffffff8211156125f6576125f56128b9565b5b6125ff826128e8565b9050602081019050919050565b6000819050602082019050919050565b600081519050919050565b600081519050919050565b6000602082019050919050565b600082825260208201905092915050565b600081905092915050565b600082825260208201905092915050565b60006126778261274d565b91506126828361274d565b9250827fffffffffffffffffffffffffffffffffffffffffffffffffffffffffffffffff038211156126b7576126b661285b565b5b828201905092915050565b60006126cd8261274d565b91506126d88361274d565b9250828210156126eb576126ea61285b565b5b828203905092915050565b60006127018261272d565b9050919050565b60006127138261272d565b9050919050565b600081905061272882612b5d565b919050565b600073ffffffffffffffffffffffffffffffffffffffff82169050919050565b6000819050919050565b60006127628261277b565b9050919050565b60006127748261271a565b9050919050565b60006127868261278d565b9050919050565b60006127988261272d565b9050919050565b82818337600083830152505050565b60005b838110156127cc5780820151818401526020810190506127b1565b838111156127db576000848401525b50505050565b6127ea826128e8565b810181811067ffffffffffffffff82111715612809576128086128b9565b5b80604052505050565b600061281d8261274d565b91507fffffffffffffffffffffffffffffffffffffffffffffffffffffffffffffffff8214156128505761284f61285b565b5b600182019050919050565b7f4e487b7100000000000000000000000000000000000000000000000000000000600052601160045260246000fd5b7f4e487b7100000000000000000000000000000000000000000000000000000000600052602160045260246000fd5b7f4e487b7100000000000000000000000000000000000000000000000000000000600052604160045260246000fd5b6000601f19601f8301169050919050565b7f5072696365206d75737420626520657175616c20746f204e4654207072696365600082015250565b7f596f75206e65656420746f20706179206d696e74696e67207072696365000000600082015250565b7f456e74657220612076616c696420757269000000000000000000000000000000600082015250565b7f456e74657220612076616c6964206d61726b6574706c6163652061646472657360008201527f7300000000000000000000000000000000000000000000000000000000000000602082015250565b7f456e74657220612076616c696420746f6b656e49640000000000000000000000600082015250565b7f596f752068617665206e6f7420796574206372656174656420616e792069746560008201527f6d73000000000000000000000000000000000000000000000000000000000000602082015250565b7f4c697374696e67206973206e6f74206163746976650000000000000000000000600082015250565b7f5472616e73666572206f66207061796d656e74206661696c6564000000000000600082015250565b50565b7f596f752063757272656e746c79206f776e206e6f206974656d73000000000000600082015250565b7f5472616e73666572206f66206d696e74436f7374206661696c65640000000000600082015250565b7f5265656e7472616e637947756172643a207265656e7472616e742063616c6c00600082015250565b7f5072696365206d757374206265206174206c6561737420312077656900000000600082015250565b7f4f6e6c79206f776e65722063616e2063616e63656c206c697374696e67000000600082015250565b60038110612b6e57612b6d61288a565b5b50565b612b7a816126f6565b8114612b8557600080fd5b50565b612b918161274d565b8114612b9c57600080fd5b5056fea264697066735822122014b198b592f6de3d4082ec7617bd9bd7bdc2953d28720b209300618aeffb839e64736f6c63430008040033",
  "linkReferences": {},
  "deployedLinkReferences": {}
}