{
  "_format": "hh-sol-artifact-1",
  "contractName": "NFTMarket",
  "sourceName": "contracts/NFTMarket.sol",
  "abi": [
    {
      "inputs": [],
      "stateMutability": "nonpayable",
      "type": "constructor"
    },
    {
      "anonymous": false,
      "inputs": [
        {
          "indexed": false,
          "internalType": "uint256",
          "name": "token",
          "type": "uint256"
        },
        {
          "indexed": false,
          "internalType": "address",
          "name": "owner",
          "type": "address"
        }
      ],
      "name": "CancelSell",
      "type": "event"
    },
    {
      "anonymous": false,
      "inputs": [
        {
          "indexed": false,
          "internalType": "address",
          "name": "nftContract",
          "type": "address"
        },
        {
          "indexed": false,
          "internalType": "address",
          "name": "owner",
          "type": "address"
        },
        {
          "indexed": false,
          "internalType": "address",
          "name": "creator",
          "type": "address"
        },
        {
          "indexed": false,
          "internalType": "uint256",
          "name": "token",
          "type": "uint256"
        },
        {
          "indexed": false,
          "internalType": "uint256",
          "name": "price",
          "type": "uint256"
        }
      ],
      "name": "Item",
      "type": "event"
    },
    {
      "anonymous": false,
      "inputs": [
        {
          "indexed": true,
          "internalType": "address",
          "name": "previousOwner",
          "type": "address"
        },
        {
          "indexed": true,
          "internalType": "address",
          "name": "newOwner",
          "type": "address"
        }
      ],
      "name": "OwnershipTransferred",
      "type": "event"
    },
    {
      "anonymous": false,
      "inputs": [
        {
          "indexed": false,
          "internalType": "address",
          "name": "nftContract",
          "type": "address"
        },
        {
          "indexed": false,
          "internalType": "address",
          "name": "owner",
          "type": "address"
        },
        {
          "indexed": false,
          "internalType": "address",
          "name": "creator",
          "type": "address"
        },
        {
          "indexed": false,
          "internalType": "uint256",
          "name": "token",
          "type": "uint256"
        },
        {
          "indexed": false,
          "internalType": "uint256",
          "name": "price",
          "type": "uint256"
        }
      ],
      "name": "Sold",
      "type": "event"
    },
    {
      "inputs": [
        {
          "internalType": "uint256",
          "name": "",
          "type": "uint256"
        }
      ],
      "name": "Items",
      "outputs": [
        {
          "internalType": "enum NFTMarket.ListingStatus",
          "name": "status",
          "type": "uint8"
        },
        {
          "internalType": "address",
          "name": "nftContract",
          "type": "address"
        },
        {
          "internalType": "address payable",
          "name": "owner",
          "type": "address"
        },
        {
          "internalType": "address payable",
          "name": "creator",
          "type": "address"
        },
        {
          "internalType": "uint256",
          "name": "token",
          "type": "uint256"
        },
        {
          "internalType": "uint256",
          "name": "price",
          "type": "uint256"
        }
      ],
      "stateMutability": "view",
      "type": "function"
    },
    {
      "inputs": [
        {
          "internalType": "uint256",
          "name": "_tokenId",
          "type": "uint256"
        }
      ],
      "name": "buyItem",
      "outputs": [],
      "stateMutability": "payable",
      "type": "function"
    },
    {
      "inputs": [
        {
          "internalType": "uint256",
          "name": "_tokenId",
          "type": "uint256"
        }
      ],
      "name": "cancelSell",
      "outputs": [],
      "stateMutability": "nonpayable",
      "type": "function"
    },
    {
      "inputs": [],
      "name": "fetchCreatorItemsListed",
      "outputs": [
        {
          "components": [
            {
              "internalType": "enum NFTMarket.ListingStatus",
              "name": "status",
              "type": "uint8"
            },
            {
              "internalType": "address",
              "name": "nftContract",
              "type": "address"
            },
            {
              "internalType": "address payable",
              "name": "owner",
              "type": "address"
            },
            {
              "internalType": "address payable",
              "name": "creator",
              "type": "address"
            },
            {
              "internalType": "uint256",
              "name": "token",
              "type": "uint256"
            },
            {
              "internalType": "uint256",
              "name": "price",
              "type": "uint256"
            }
          ],
          "internalType": "struct NFTMarket._Item[]",
          "name": "",
          "type": "tuple[]"
        }
      ],
      "stateMutability": "view",
      "type": "function"
    },
    {
      "inputs": [],
      "name": "fetchMarketItems",
      "outputs": [
        {
          "components": [
            {
              "internalType": "enum NFTMarket.ListingStatus",
              "name": "status",
              "type": "uint8"
            },
            {
              "internalType": "address",
              "name": "nftContract",
              "type": "address"
            },
            {
              "internalType": "address payable",
              "name": "owner",
              "type": "address"
            },
            {
              "internalType": "address payable",
              "name": "creator",
              "type": "address"
            },
            {
              "internalType": "uint256",
              "name": "token",
              "type": "uint256"
            },
            {
              "internalType": "uint256",
              "name": "price",
              "type": "uint256"
            }
          ],
          "internalType": "struct NFTMarket._Item[]",
          "name": "",
          "type": "tuple[]"
        }
      ],
      "stateMutability": "view",
      "type": "function"
    },
    {
      "inputs": [],
      "name": "fetchOwnerItemsListed",
      "outputs": [
        {
          "components": [
            {
              "internalType": "enum NFTMarket.ListingStatus",
              "name": "status",
              "type": "uint8"
            },
            {
              "internalType": "address",
              "name": "nftContract",
              "type": "address"
            },
            {
              "internalType": "address payable",
              "name": "owner",
              "type": "address"
            },
            {
              "internalType": "address payable",
              "name": "creator",
              "type": "address"
            },
            {
              "internalType": "uint256",
              "name": "token",
              "type": "uint256"
            },
            {
              "internalType": "uint256",
              "name": "price",
              "type": "uint256"
            }
          ],
          "internalType": "struct NFTMarket._Item[]",
          "name": "",
          "type": "tuple[]"
        }
      ],
      "stateMutability": "view",
      "type": "function"
    },
    {
      "inputs": [],
      "name": "mintingCost",
      "outputs": [
        {
          "internalType": "uint256",
          "name": "",
          "type": "uint256"
        }
      ],
      "stateMutability": "view",
      "type": "function"
    },
    {
      "inputs": [],
      "name": "owner",
      "outputs": [
        {
          "internalType": "address",
          "name": "",
          "type": "address"
        }
      ],
      "stateMutability": "view",
      "type": "function"
    },
    {
      "inputs": [],
      "name": "renounceOwnership",
      "outputs": [],
      "stateMutability": "nonpayable",
      "type": "function"
    },
    {
      "inputs": [
        {
          "internalType": "string",
          "name": "uri",
          "type": "string"
        },
        {
          "internalType": "uint256",
          "name": "_price",
          "type": "uint256"
        },
        {
          "internalType": "address",
          "name": "_nftContract",
          "type": "address"
        }
      ],
      "name": "sellItem",
      "outputs": [],
      "stateMutability": "payable",
      "type": "function"
    },
    {
      "inputs": [
        {
          "internalType": "address",
          "name": "newOwner",
          "type": "address"
        }
      ],
      "name": "transferOwnership",
      "outputs": [],
      "stateMutability": "nonpayable",
      "type": "function"
    }
  ],
  "bytecode": "0x608060405260006005553480156200001657600080fd5b5060016000819055506200003f620000336200008660201b60201c565b6200008e60201b60201c565b33600460006101000a81548173ffffffffffffffffffffffffffffffffffffffff021916908373ffffffffffffffffffffffffffffffffffffffff16021790555062000154565b600033905090565b6000600160009054906101000a900473ffffffffffffffffffffffffffffffffffffffff16905081600160006101000a81548173ffffffffffffffffffffffffffffffffffffffff021916908373ffffffffffffffffffffffffffffffffffffffff1602179055508173ffffffffffffffffffffffffffffffffffffffff168173ffffffffffffffffffffffffffffffffffffffff167f8be0079c531659141344cd1fd0a4f28419497f9722a3daafe3b4186f6b6457e060405160405180910390a35050565b61301b80620001646000396000f3fe60806040526004361061009c5760003560e01c80638da5cb5b116100645780638da5cb5b14610179578063ae8ef20a146101a4578063e7fb74c7146101c0578063ebf98abf146101dc578063f2fde38b14610207578063fc50b5d3146102305761009c565b806307c9cd45146100a15780630f08efe0146100ca57806317b47cc4146100f55780635c90fc6614610137578063715018a614610162575b600080fd5b3480156100ad57600080fd5b506100c860048036038101906100c3919061215f565b61025b565b005b3480156100d657600080fd5b506100df6105b7565b6040516100ec919061269f565b60405180910390f35b34801561010157600080fd5b5061011c6004803603810190610117919061215f565b6109af565b60405161012e969594939291906126c1565b60405180910390f35b34801561014357600080fd5b5061014c610a58565b604051610159919061269f565b60405180910390f35b34801561016e57600080fd5b50610177610e55565b005b34801561018557600080fd5b5061018e610edd565b60405161019b91906125a7565b60405180910390f35b6101be60048036038101906101b991906120f8565b610f07565b005b6101da60048036038101906101d5919061215f565b61144a565b005b3480156101e857600080fd5b506101f161198b565b6040516101fe9190612940565b60405180910390f35b34801561021357600080fd5b5061022e600480360381019061022991906120cf565b611991565b005b34801561023c57600080fd5b50610245611a89565b604051610252919061269f565b60405180910390f35b8060008110156102a0576040517f08c379a000000000000000000000000000000000000000000000000000000000815260040161029790612800565b60405180910390fd5b60006006600084815260200190815260200160002090508060010160009054906101000a900473ffffffffffffffffffffffffffffffffffffffff1673ffffffffffffffffffffffffffffffffffffffff163373ffffffffffffffffffffffffffffffffffffffff16148061036457508060020160009054906101000a900473ffffffffffffffffffffffffffffffffffffffff1673ffffffffffffffffffffffffffffffffffffffff163373ffffffffffffffffffffffffffffffffffffffff16145b6103a3576040517f08c379a000000000000000000000000000000000000000000000000000000000815260040161039a90612920565b60405180910390fd5b600060028111156103dd577f4e487b7100000000000000000000000000000000000000000000000000000000600052602160045260246000fd5b8160000160009054906101000a900460ff166002811115610427577f4e487b7100000000000000000000000000000000000000000000000000000000600052602160045260246000fd5b14610467576040517f08c379a000000000000000000000000000000000000000000000000000000000815260040161045e90612840565b60405180910390fd5b60028160000160006101000a81548160ff021916908360028111156104b5577f4e487b7100000000000000000000000000000000000000000000000000000000600052602160045260246000fd5b02179055508060000160019054906101000a900473ffffffffffffffffffffffffffffffffffffffff1673ffffffffffffffffffffffffffffffffffffffff166323b872dd303384600301546040518463ffffffff1660e01b815260040161051f93929190612668565b600060405180830381600087803b15801561053957600080fd5b505af115801561054d573d6000803e3d6000fd5b505050507f9a7ead5b5e3d6b8d3e88f6057599b7eecec51b2aad38c25b8141deaec6dcabc381600301548260010160009054906101000a900473ffffffffffffffffffffffffffffffffffffffff166040516105aa92919061295b565b60405180910390a1505050565b606060006105c56002611e86565b905060006105d36003611e86565b6105dd6002611e86565b6105e79190612a90565b90506000808267ffffffffffffffff81111561062c577f4e487b7100000000000000000000000000000000000000000000000000000000600052604160045260246000fd5b60405190808252806020026020018201604052801561066557816020015b610652611f78565b81526020019060019003908161064a5790505b50905060005b848110156109a4573073ffffffffffffffffffffffffffffffffffffffff166006600083815260200190815260200160002060010160009054906101000a900473ffffffffffffffffffffffffffffffffffffffff1673ffffffffffffffffffffffffffffffffffffffff16148015610777575060006002811115610719577f4e487b7100000000000000000000000000000000000000000000000000000000600052602160045260246000fd5b6006600083815260200190815260200160002060000160009054906101000a900460ff166002811115610775577f4e487b7100000000000000000000000000000000000000000000000000000000600052602160045260246000fd5b145b15610991576000600660008381526020019081526020016000209050806040518060c00160405290816000820160009054906101000a900460ff1660028111156107ea577f4e487b7100000000000000000000000000000000000000000000000000000000600052602160045260246000fd5b6002811115610822577f4e487b7100000000000000000000000000000000000000000000000000000000600052602160045260246000fd5b81526020016000820160019054906101000a900473ffffffffffffffffffffffffffffffffffffffff1673ffffffffffffffffffffffffffffffffffffffff1673ffffffffffffffffffffffffffffffffffffffff1681526020016001820160009054906101000a900473ffffffffffffffffffffffffffffffffffffffff1673ffffffffffffffffffffffffffffffffffffffff1673ffffffffffffffffffffffffffffffffffffffff1681526020016002820160009054906101000a900473ffffffffffffffffffffffffffffffffffffffff1673ffffffffffffffffffffffffffffffffffffffff1673ffffffffffffffffffffffffffffffffffffffff16815260200160038201548152602001600482015481525050838581518110610975577f4e487b7100000000000000000000000000000000000000000000000000000000600052603260045260246000fd5b602002602001018190525060018461098d9190612a3a565b9350505b808061099c90612be0565b91505061066b565b508094505050505090565b60066020528060005260406000206000915090508060000160009054906101000a900460ff16908060000160019054906101000a900473ffffffffffffffffffffffffffffffffffffffff16908060010160009054906101000a900473ffffffffffffffffffffffffffffffffffffffff16908060020160009054906101000a900473ffffffffffffffffffffffffffffffffffffffff16908060030154908060040154905086565b60606000600860003373ffffffffffffffffffffffffffffffffffffffff1673ffffffffffffffffffffffffffffffffffffffff1681526020019081526020016000205411610adc576040517f08c379a0000000000000000000000000000000000000000000000000000000008152600401610ad3906128a0565b60405180910390fd5b6000610ae86002611e86565b90506000600860003373ffffffffffffffffffffffffffffffffffffffff1673ffffffffffffffffffffffffffffffffffffffff1681526020019081526020016000205490506000808267ffffffffffffffff811115610b71577f4e487b7100000000000000000000000000000000000000000000000000000000600052604160045260246000fd5b604051908082528060200260200182016040528015610baa57816020015b610b97611f78565b815260200190600190039081610b8f5790505b50905060005b84811015610e4a573373ffffffffffffffffffffffffffffffffffffffff166006600083815260200190815260200160002060010160009054906101000a900473ffffffffffffffffffffffffffffffffffffffff1673ffffffffffffffffffffffffffffffffffffffff161415610e37576000600660008381526020019081526020016000209050806040518060c00160405290816000820160009054906101000a900460ff166002811115610c90577f4e487b7100000000000000000000000000000000000000000000000000000000600052602160045260246000fd5b6002811115610cc8577f4e487b7100000000000000000000000000000000000000000000000000000000600052602160045260246000fd5b81526020016000820160019054906101000a900473ffffffffffffffffffffffffffffffffffffffff1673ffffffffffffffffffffffffffffffffffffffff1673ffffffffffffffffffffffffffffffffffffffff1681526020016001820160009054906101000a900473ffffffffffffffffffffffffffffffffffffffff1673ffffffffffffffffffffffffffffffffffffffff1673ffffffffffffffffffffffffffffffffffffffff1681526020016002820160009054906101000a900473ffffffffffffffffffffffffffffffffffffffff1673ffffffffffffffffffffffffffffffffffffffff1673ffffffffffffffffffffffffffffffffffffffff16815260200160038201548152602001600482015481525050838581518110610e1b577f4e487b7100000000000000000000000000000000000000000000000000000000600052603260045260246000fd5b6020026020010181905250600184610e339190612a3a565b9350505b8080610e4290612be0565b915050610bb0565b508094505050505090565b610e5d611e94565b73ffffffffffffffffffffffffffffffffffffffff16610e7b610edd565b73ffffffffffffffffffffffffffffffffffffffff1614610ed1576040517f08c379a0000000000000000000000000000000000000000000000000000000008152600401610ec890612860565b60405180910390fd5b610edb6000611e9c565b565b6000600160009054906101000a900473ffffffffffffffffffffffffffffffffffffffff16905090565b60026000541415610f4d576040517f08c379a0000000000000000000000000000000000000000000000000000000008152600401610f44906128e0565b60405180910390fd5b600260008190555060008211610f98576040517f08c379a0000000000000000000000000000000000000000000000000000000008152600401610f8f90612900565b60405180910390fd5b6005543414610fdc576040517f08c379a0000000000000000000000000000000000000000000000000000000008152600401610fd390612780565b60405180910390fd5b600073ffffffffffffffffffffffffffffffffffffffff168173ffffffffffffffffffffffffffffffffffffffff16141561104c576040517f08c379a0000000000000000000000000000000000000000000000000000000008152600401611043906127e0565b60405180910390fd5b6000835111611090576040517f08c379a0000000000000000000000000000000000000000000000000000000008152600401611087906127c0565b60405180910390fd5b600061109c6002611e86565b90506110a86002611f62565b600760003373ffffffffffffffffffffffffffffffffffffffff1673ffffffffffffffffffffffffffffffffffffffff16815260200190815260200160002060008154809291906110f890612be0565b919050555060008273ffffffffffffffffffffffffffffffffffffffff16636af812828630336040518463ffffffff1660e01b815260040161113c93929190612722565b602060405180830381600087803b15801561115657600080fd5b505af115801561116a573d6000803e3d6000fd5b505050506040513d601f19601f8201168201806040525081019061118e9190612188565b90506040518060c00160405280600060028111156111d5577f4e487b7100000000000000000000000000000000000000000000000000000000600052602160045260246000fd5b81526020018473ffffffffffffffffffffffffffffffffffffffff1681526020013073ffffffffffffffffffffffffffffffffffffffff1681526020013373ffffffffffffffffffffffffffffffffffffffff168152602001828152602001858152506006600084815260200190815260200160002060008201518160000160006101000a81548160ff0219169083600281111561129c577f4e487b7100000000000000000000000000000000000000000000000000000000600052602160045260246000fd5b021790555060208201518160000160016101000a81548173ffffffffffffffffffffffffffffffffffffffff021916908373ffffffffffffffffffffffffffffffffffffffff16021790555060408201518160010160006101000a81548173ffffffffffffffffffffffffffffffffffffffff021916908373ffffffffffffffffffffffffffffffffffffffff16021790555060608201518160020160006101000a81548173ffffffffffffffffffffffffffffffffffffffff021916908373ffffffffffffffffffffffffffffffffffffffff1602179055506080820151816003015560a082015181600401559050508273ffffffffffffffffffffffffffffffffffffffff166323b872dd3330846040518463ffffffff1660e01b81526004016113ca93929190612668565b600060405180830381600087803b1580156113e457600080fd5b505af11580156113f8573d6000803e3d6000fd5b505050507f14119be79c3c72a43e018782c3768e0f129fd3c6b43e7fd40c621cfd78c5518083303384886040516114339594939291906125c2565b60405180910390a150506001600081905550505050565b80600081101561148f576040517f08c379a000000000000000000000000000000000000000000000000000000000815260040161148690612800565b60405180910390fd5b600260005414156114d5576040517f08c379a00000000000000000000000000000000000000000000000000000000081526004016114cc906128e0565b60405180910390fd5b600260008190555060006006600084815260200190815260200160002090503481600401541461153a576040517f08c379a000000000000000000000000000000000000000000000000000000000815260040161153190612760565b60405180910390fd5b338160010160006101000a81548173ffffffffffffffffffffffffffffffffffffffff021916908373ffffffffffffffffffffffffffffffffffffffff16021790555060018160000160006101000a81548160ff021916908360028111156115cb577f4e487b7100000000000000000000000000000000000000000000000000000000600052602160045260246000fd5b0217905550600860003373ffffffffffffffffffffffffffffffffffffffff1673ffffffffffffffffffffffffffffffffffffffff168152602001908152602001600020600081548092919061162090612be0565b919050555060008160020160009054906101000a900473ffffffffffffffffffffffffffffffffffffffff169050600073ffffffffffffffffffffffffffffffffffffffff168260010160009054906101000a900473ffffffffffffffffffffffffffffffffffffffff1673ffffffffffffffffffffffffffffffffffffffff1614156116cf578160010160009054906101000a900473ffffffffffffffffffffffffffffffffffffffff1690505b60008173ffffffffffffffffffffffffffffffffffffffff16346040516116f590612592565b60006040518083038185875af1925050503d8060008114611732576040519150601f19603f3d011682016040523d82523d6000602084013e611737565b606091505b505090508061177b576040517f08c379a000000000000000000000000000000000000000000000000000000000815260040161177290612880565b60405180910390fd5b6117856003611f62565b8260000160019054906101000a900473ffffffffffffffffffffffffffffffffffffffff1673ffffffffffffffffffffffffffffffffffffffff166323b872dd303386600301546040518463ffffffff1660e01b81526004016117ea93929190612668565b600060405180830381600087803b15801561180457600080fd5b505af1158015611818573d6000803e3d6000fd5b505050506000600460009054906101000a900473ffffffffffffffffffffffffffffffffffffffff1673ffffffffffffffffffffffffffffffffffffffff1660055460405161186690612592565b60006040518083038185875af1925050503d80600081146118a3576040519150601f19603f3d011682016040523d82523d6000602084013e6118a8565b606091505b50509050806118ec576040517f08c379a00000000000000000000000000000000000000000000000000000000081526004016118e3906128c0565b60405180910390fd5b7f5764dbcef91eb6f946584f4ea671217c686fa7e858ce4f9f42d08422b86556a98460000160019054906101000a900473ffffffffffffffffffffffffffffffffffffffff16338660020160009054906101000a900473ffffffffffffffffffffffffffffffffffffffff1687600301548860040154604051611973959493929190612615565b60405180910390a15050505060016000819055505050565b60055481565b611999611e94565b73ffffffffffffffffffffffffffffffffffffffff166119b7610edd565b73ffffffffffffffffffffffffffffffffffffffff1614611a0d576040517f08c379a0000000000000000000000000000000000000000000000000000000008152600401611a0490612860565b60405180910390fd5b600073ffffffffffffffffffffffffffffffffffffffff168173ffffffffffffffffffffffffffffffffffffffff161415611a7d576040517f08c379a0000000000000000000000000000000000000000000000000000000008152600401611a74906127a0565b60405180910390fd5b611a8681611e9c565b50565b60606000600760003373ffffffffffffffffffffffffffffffffffffffff1673ffffffffffffffffffffffffffffffffffffffff1681526020019081526020016000205411611b0d576040517f08c379a0000000000000000000000000000000000000000000000000000000008152600401611b0490612820565b60405180910390fd5b6000611b196002611e86565b90506000600760003373ffffffffffffffffffffffffffffffffffffffff1673ffffffffffffffffffffffffffffffffffffffff16815260200190815260200160002054905060008167ffffffffffffffff811115611ba1577f4e487b7100000000000000000000000000000000000000000000000000000000600052604160045260246000fd5b604051908082528060200260200182016040528015611bda57816020015b611bc7611f78565b815260200190600190039081611bbf5790505b5090506000805b84811015611e7b573373ffffffffffffffffffffffffffffffffffffffff166006600083815260200190815260200160002060020160009054906101000a900473ffffffffffffffffffffffffffffffffffffffff1673ffffffffffffffffffffffffffffffffffffffff161415611e68576000600660008381526020019081526020016000209050806040518060c00160405290816000820160009054906101000a900460ff166002811115611cc1577f4e487b7100000000000000000000000000000000000000000000000000000000600052602160045260246000fd5b6002811115611cf9577f4e487b7100000000000000000000000000000000000000000000000000000000600052602160045260246000fd5b81526020016000820160019054906101000a900473ffffffffffffffffffffffffffffffffffffffff1673ffffffffffffffffffffffffffffffffffffffff1673ffffffffffffffffffffffffffffffffffffffff1681526020016001820160009054906101000a900473ffffffffffffffffffffffffffffffffffffffff1673ffffffffffffffffffffffffffffffffffffffff1673ffffffffffffffffffffffffffffffffffffffff1681526020016002820160009054906101000a900473ffffffffffffffffffffffffffffffffffffffff1673ffffffffffffffffffffffffffffffffffffffff1673ffffffffffffffffffffffffffffffffffffffff16815260200160038201548152602001600482015481525050848481518110611e4c577f4e487b7100000000000000000000000000000000000000000000000000000000600052603260045260246000fd5b6020026020010181905250600183611e649190612a3a565b9250505b8080611e7390612be0565b915050611be1565b508194505050505090565b600081600001549050919050565b600033905090565b6000600160009054906101000a900473ffffffffffffffffffffffffffffffffffffffff16905081600160006101000a81548173ffffffffffffffffffffffffffffffffffffffff021916908373ffffffffffffffffffffffffffffffffffffffff1602179055508173ffffffffffffffffffffffffffffffffffffffff168173ffffffffffffffffffffffffffffffffffffffff167f8be0079c531659141344cd1fd0a4f28419497f9722a3daafe3b4186f6b6457e060405160405180910390a35050565b6001816000016000828254019250508190555050565b6040518060c0016040528060006002811115611fbd577f4e487b7100000000000000000000000000000000000000000000000000000000600052602160045260246000fd5b8152602001600073ffffffffffffffffffffffffffffffffffffffff168152602001600073ffffffffffffffffffffffffffffffffffffffff168152602001600073ffffffffffffffffffffffffffffffffffffffff16815260200160008152602001600081525090565b600061203b612036846129a9565b612984565b90508281526020810184848401111561205357600080fd5b61205e848285612b6d565b509392505050565b60008135905061207581612fb7565b92915050565b600082601f83011261208c57600080fd5b813561209c848260208601612028565b91505092915050565b6000813590506120b481612fce565b92915050565b6000815190506120c981612fce565b92915050565b6000602082840312156120e157600080fd5b60006120ef84828501612066565b91505092915050565b60008060006060848603121561210d57600080fd5b600084013567ffffffffffffffff81111561212757600080fd5b6121338682870161207b565b9350506020612144868287016120a5565b925050604061215586828701612066565b9150509250925092565b60006020828403121561217157600080fd5b600061217f848285016120a5565b91505092915050565b60006020828403121561219a57600080fd5b60006121a8848285016120ba565b91505092915050565b60006121bd83836124f9565b60c08301905092915050565b6121d281612b25565b82525050565b6121e181612ad6565b82525050565b6121f081612ad6565b82525050565b6121ff81612ac4565b82525050565b61220e81612ac4565b82525050565b600061221f826129ea565b6122298185612a0d565b9350612234836129da565b8060005b8381101561226557815161224c88826121b1565b975061225783612a00565b925050600181019050612238565b5085935050505092915050565b61227b81612b37565b82525050565b61228a81612b37565b82525050565b600061229b826129f5565b6122a58185612a29565b93506122b5818560208601612b7c565b6122be81612cb6565b840191505092915050565b60006122d6602083612a29565b91506122e182612cc7565b602082019050919050565b60006122f9601d83612a29565b915061230482612cf0565b602082019050919050565b600061231c602683612a29565b915061232782612d19565b604082019050919050565b600061233f601183612a29565b915061234a82612d68565b602082019050919050565b6000612362602183612a29565b915061236d82612d91565b604082019050919050565b6000612385601583612a29565b915061239082612de0565b602082019050919050565b60006123a8602283612a29565b91506123b382612e09565b604082019050919050565b60006123cb601583612a29565b91506123d682612e58565b602082019050919050565b60006123ee602083612a29565b91506123f982612e81565b602082019050919050565b6000612411601a83612a29565b915061241c82612eaa565b602082019050919050565b6000612434600083612a1e565b915061243f82612ed3565b600082019050919050565b6000612457601a83612a29565b915061246282612ed6565b602082019050919050565b600061247a601b83612a29565b915061248582612eff565b602082019050919050565b600061249d601f83612a29565b91506124a882612f28565b602082019050919050565b60006124c0601c83612a29565b91506124cb82612f51565b602082019050919050565b60006124e3601d83612a29565b91506124ee82612f7a565b602082019050919050565b60c08201600082015161250f6000850182612272565b50602082015161252260208501826121f6565b50604082015161253560408501826121d8565b50606082015161254860608501826121d8565b50608082015161255b6080850182612574565b5060a082015161256e60a0850182612574565b50505050565b61257d81612b1b565b82525050565b61258c81612b1b565b82525050565b600061259d82612427565b9150819050919050565b60006020820190506125bc6000830184612205565b92915050565b600060a0820190506125d76000830188612205565b6125e460208301876121c9565b6125f160408301866121c9565b6125fe6060830185612583565b61260b6080830184612583565b9695505050505050565b600060a08201905061262a6000830188612205565b6126376020830187612205565b61264460408301866121c9565b6126516060830185612583565b61265e6080830184612583565b9695505050505050565b600060608201905061267d6000830186612205565b61268a6020830185612205565b6126976040830184612583565b949350505050565b600060208201905081810360008301526126b98184612214565b905092915050565b600060c0820190506126d66000830189612281565b6126e36020830188612205565b6126f060408301876121e7565b6126fd60608301866121e7565b61270a6080830185612583565b61271760a0830184612583565b979650505050505050565b6000606082019050818103600083015261273c8186612290565b905061274b6020830185612205565b6127586040830184612205565b949350505050565b60006020820190508181036000830152612779816122c9565b9050919050565b60006020820190508181036000830152612799816122ec565b9050919050565b600060208201905081810360008301526127b98161230f565b9050919050565b600060208201905081810360008301526127d981612332565b9050919050565b600060208201905081810360008301526127f981612355565b9050919050565b6000602082019050818103600083015261281981612378565b9050919050565b600060208201905081810360008301526128398161239b565b9050919050565b60006020820190508181036000830152612859816123be565b9050919050565b60006020820190508181036000830152612879816123e1565b9050919050565b6000602082019050818103600083015261289981612404565b9050919050565b600060208201905081810360008301526128b98161244a565b9050919050565b600060208201905081810360008301526128d98161246d565b9050919050565b600060208201905081810360008301526128f981612490565b9050919050565b60006020820190508181036000830152612919816124b3565b9050919050565b60006020820190508181036000830152612939816124d6565b9050919050565b60006020820190506129556000830184612583565b92915050565b60006040820190506129706000830185612583565b61297d60208301846121c9565b9392505050565b600061298e61299f565b905061299a8282612baf565b919050565b6000604051905090565b600067ffffffffffffffff8211156129c4576129c3612c87565b5b6129cd82612cb6565b9050602081019050919050565b6000819050602082019050919050565b600081519050919050565b600081519050919050565b6000602082019050919050565b600082825260208201905092915050565b600081905092915050565b600082825260208201905092915050565b6000612a4582612b1b565b9150612a5083612b1b565b9250827fffffffffffffffffffffffffffffffffffffffffffffffffffffffffffffffff03821115612a8557612a84612c29565b5b828201905092915050565b6000612a9b82612b1b565b9150612aa683612b1b565b925082821015612ab957612ab8612c29565b5b828203905092915050565b6000612acf82612afb565b9050919050565b6000612ae182612afb565b9050919050565b6000819050612af682612fa3565b919050565b600073ffffffffffffffffffffffffffffffffffffffff82169050919050565b6000819050919050565b6000612b3082612b49565b9050919050565b6000612b4282612ae8565b9050919050565b6000612b5482612b5b565b9050919050565b6000612b6682612afb565b9050919050565b82818337600083830152505050565b60005b83811015612b9a578082015181840152602081019050612b7f565b83811115612ba9576000848401525b50505050565b612bb882612cb6565b810181811067ffffffffffffffff82111715612bd757612bd6612c87565b5b80604052505050565b6000612beb82612b1b565b91507fffffffffffffffffffffffffffffffffffffffffffffffffffffffffffffffff821415612c1e57612c1d612c29565b5b600182019050919050565b7f4e487b7100000000000000000000000000000000000000000000000000000000600052601160045260246000fd5b7f4e487b7100000000000000000000000000000000000000000000000000000000600052602160045260246000fd5b7f4e487b7100000000000000000000000000000000000000000000000000000000600052604160045260246000fd5b6000601f19601f8301169050919050565b7f5072696365206d75737420626520657175616c20746f204e4654207072696365600082015250565b7f596f75206e65656420746f20706179206d696e74696e67207072696365000000600082015250565b7f4f776e61626c653a206e6577206f776e657220697320746865207a65726f206160008201527f6464726573730000000000000000000000000000000000000000000000000000602082015250565b7f456e74657220612076616c696420757269000000000000000000000000000000600082015250565b7f456e74657220612076616c6964206d61726b6574706c6163652061646472657360008201527f7300000000000000000000000000000000000000000000000000000000000000602082015250565b7f456e74657220612076616c696420746f6b656e49640000000000000000000000600082015250565b7f596f752068617665206e6f7420796574206372656174656420616e792069746560008201527f6d73000000000000000000000000000000000000000000000000000000000000602082015250565b7f4c697374696e67206973206e6f74206163746976650000000000000000000000600082015250565b7f4f776e61626c653a2063616c6c6572206973206e6f7420746865206f776e6572600082015250565b7f5472616e73666572206f66207061796d656e74206661696c6564000000000000600082015250565b50565b7f596f752063757272656e746c79206f776e206e6f206974656d73000000000000600082015250565b7f5472616e73666572206f66206d696e74436f7374206661696c65640000000000600082015250565b7f5265656e7472616e637947756172643a207265656e7472616e742063616c6c00600082015250565b7f5072696365206d757374206265206174206c6561737420312077656900000000600082015250565b7f4f6e6c79206f776e65722063616e2063616e63656c206c697374696e67000000600082015250565b60038110612fb457612fb3612c58565b5b50565b612fc081612ac4565b8114612fcb57600080fd5b50565b612fd781612b1b565b8114612fe257600080fd5b5056fea2646970667358221220c1385d87ee2c35a591dba40e8e84db4a0ee74b31864faa025a25d4385131799d64736f6c63430008040033",
  "linkReferences": {},
  "deployedLinkReferences": {}
}