{
  "_format": "hh-sol-artifact-1",
  "contractName": "NFTMarket",
  "sourceName": "contracts/NFTMarket.sol",
  "abi": [
    {
      "inputs": [],
      "stateMutability": "nonpayable",
      "type": "constructor"
    },
    {
      "anonymous": false,
      "inputs": [
        {
          "indexed": false,
          "internalType": "uint256",
          "name": "token",
          "type": "uint256"
        },
        {
          "indexed": false,
          "internalType": "address",
          "name": "owner",
          "type": "address"
        }
      ],
      "name": "CancelSell",
      "type": "event"
    },
    {
      "anonymous": false,
      "inputs": [
        {
          "indexed": false,
          "internalType": "address",
          "name": "nftContract",
          "type": "address"
        },
        {
          "indexed": false,
          "internalType": "address",
          "name": "owner",
          "type": "address"
        },
        {
          "indexed": false,
          "internalType": "address",
          "name": "creator",
          "type": "address"
        },
        {
          "indexed": false,
          "internalType": "uint256",
          "name": "token",
          "type": "uint256"
        },
        {
          "indexed": false,
          "internalType": "uint256",
          "name": "price",
          "type": "uint256"
        }
      ],
      "name": "Item",
      "type": "event"
    },
    {
      "anonymous": false,
      "inputs": [
        {
          "indexed": true,
          "internalType": "address",
          "name": "previousOwner",
          "type": "address"
        },
        {
          "indexed": true,
          "internalType": "address",
          "name": "newOwner",
          "type": "address"
        }
      ],
      "name": "OwnershipTransferred",
      "type": "event"
    },
    {
      "anonymous": false,
      "inputs": [
        {
          "indexed": false,
          "internalType": "address",
          "name": "nftContract",
          "type": "address"
        },
        {
          "indexed": false,
          "internalType": "address",
          "name": "owner",
          "type": "address"
        },
        {
          "indexed": false,
          "internalType": "address",
          "name": "creator",
          "type": "address"
        },
        {
          "indexed": false,
          "internalType": "uint256",
          "name": "token",
          "type": "uint256"
        },
        {
          "indexed": false,
          "internalType": "uint256",
          "name": "price",
          "type": "uint256"
        }
      ],
      "name": "Sold",
      "type": "event"
    },
    {
      "inputs": [
        {
          "internalType": "uint256",
          "name": "",
          "type": "uint256"
        }
      ],
      "name": "Items",
      "outputs": [
        {
          "internalType": "enum NFTMarket.ListingStatus",
          "name": "status",
          "type": "uint8"
        },
        {
          "internalType": "address",
          "name": "nftContract",
          "type": "address"
        },
        {
          "internalType": "address payable",
          "name": "owner",
          "type": "address"
        },
        {
          "internalType": "address payable",
          "name": "creator",
          "type": "address"
        },
        {
          "internalType": "uint256",
          "name": "token",
          "type": "uint256"
        },
        {
          "internalType": "uint256",
          "name": "price",
          "type": "uint256"
        }
      ],
      "stateMutability": "view",
      "type": "function"
    },
    {
      "inputs": [
        {
          "internalType": "uint256",
          "name": "_tokenId",
          "type": "uint256"
        }
      ],
      "name": "buyItem",
      "outputs": [],
      "stateMutability": "payable",
      "type": "function"
    },
    {
      "inputs": [
        {
          "internalType": "uint256",
          "name": "_tokenId",
          "type": "uint256"
        }
      ],
      "name": "cancelSell",
      "outputs": [],
      "stateMutability": "nonpayable",
      "type": "function"
    },
    {
      "inputs": [],
      "name": "fetchCreatorItemsListed",
      "outputs": [
        {
          "components": [
            {
              "internalType": "enum NFTMarket.ListingStatus",
              "name": "status",
              "type": "uint8"
            },
            {
              "internalType": "address",
              "name": "nftContract",
              "type": "address"
            },
            {
              "internalType": "address payable",
              "name": "owner",
              "type": "address"
            },
            {
              "internalType": "address payable",
              "name": "creator",
              "type": "address"
            },
            {
              "internalType": "uint256",
              "name": "token",
              "type": "uint256"
            },
            {
              "internalType": "uint256",
              "name": "price",
              "type": "uint256"
            }
          ],
          "internalType": "struct NFTMarket._Item[]",
          "name": "",
          "type": "tuple[]"
        }
      ],
      "stateMutability": "view",
      "type": "function"
    },
    {
      "inputs": [],
      "name": "fetchMarketItems",
      "outputs": [
        {
          "components": [
            {
              "internalType": "enum NFTMarket.ListingStatus",
              "name": "status",
              "type": "uint8"
            },
            {
              "internalType": "address",
              "name": "nftContract",
              "type": "address"
            },
            {
              "internalType": "address payable",
              "name": "owner",
              "type": "address"
            },
            {
              "internalType": "address payable",
              "name": "creator",
              "type": "address"
            },
            {
              "internalType": "uint256",
              "name": "token",
              "type": "uint256"
            },
            {
              "internalType": "uint256",
              "name": "price",
              "type": "uint256"
            }
          ],
          "internalType": "struct NFTMarket._Item[]",
          "name": "",
          "type": "tuple[]"
        }
      ],
      "stateMutability": "view",
      "type": "function"
    },
    {
      "inputs": [],
      "name": "fetchOwnerItemsListed",
      "outputs": [
        {
          "components": [
            {
              "internalType": "enum NFTMarket.ListingStatus",
              "name": "status",
              "type": "uint8"
            },
            {
              "internalType": "address",
              "name": "nftContract",
              "type": "address"
            },
            {
              "internalType": "address payable",
              "name": "owner",
              "type": "address"
            },
            {
              "internalType": "address payable",
              "name": "creator",
              "type": "address"
            },
            {
              "internalType": "uint256",
              "name": "token",
              "type": "uint256"
            },
            {
              "internalType": "uint256",
              "name": "price",
              "type": "uint256"
            }
          ],
          "internalType": "struct NFTMarket._Item[]",
          "name": "",
          "type": "tuple[]"
        }
      ],
      "stateMutability": "view",
      "type": "function"
    },
    {
      "inputs": [],
      "name": "mintingCost",
      "outputs": [
        {
          "internalType": "uint256",
          "name": "",
          "type": "uint256"
        }
      ],
      "stateMutability": "view",
      "type": "function"
    },
    {
      "inputs": [],
      "name": "owner",
      "outputs": [
        {
          "internalType": "address",
          "name": "",
          "type": "address"
        }
      ],
      "stateMutability": "view",
      "type": "function"
    },
    {
      "inputs": [],
      "name": "pause",
      "outputs": [],
      "stateMutability": "nonpayable",
      "type": "function"
    },
    {
      "inputs": [],
      "name": "renounceOwnership",
      "outputs": [],
      "stateMutability": "nonpayable",
      "type": "function"
    },
    {
      "inputs": [
        {
          "internalType": "string",
          "name": "uri",
          "type": "string"
        },
        {
          "internalType": "uint256",
          "name": "_price",
          "type": "uint256"
        },
        {
          "internalType": "address",
          "name": "_nftContract",
          "type": "address"
        }
      ],
      "name": "sellItem",
      "outputs": [],
      "stateMutability": "payable",
      "type": "function"
    },
    {
      "inputs": [
        {
          "internalType": "address",
          "name": "newOwner",
          "type": "address"
        }
      ],
      "name": "transferOwnership",
      "outputs": [],
      "stateMutability": "nonpayable",
      "type": "function"
    },
    {
      "inputs": [],
      "name": "unPause",
      "outputs": [],
      "stateMutability": "nonpayable",
      "type": "function"
    }
  ],
  "bytecode": "0x6080604052655af3107a40006005553480156200001b57600080fd5b50600160008190555062000044620000386200008b60201b60201c565b6200009360201b60201c565b33600460006101000a81548173ffffffffffffffffffffffffffffffffffffffff021916908373ffffffffffffffffffffffffffffffffffffffff16021790555062000159565b600033905090565b6000600160009054906101000a900473ffffffffffffffffffffffffffffffffffffffff16905081600160006101000a81548173ffffffffffffffffffffffffffffffffffffffff021916908373ffffffffffffffffffffffffffffffffffffffff1602179055508173ffffffffffffffffffffffffffffffffffffffff168173ffffffffffffffffffffffffffffffffffffffff167f8be0079c531659141344cd1fd0a4f28419497f9722a3daafe3b4186f6b6457e060405160405180910390a35050565b6132fa80620001696000396000f3fe6080604052600436106100c25760003560e01c80638da5cb5b1161007f578063ebf98abf11610059578063ebf98abf14610219578063f2fde38b14610244578063f7b188a51461026d578063fc50b5d314610284576100c2565b80638da5cb5b146101b6578063ae8ef20a146101e1578063e7fb74c7146101fd576100c2565b806307c9cd45146100c75780630f08efe0146100f057806317b47cc41461011b5780635c90fc661461015d578063715018a6146101885780638456cb591461019f575b600080fd5b3480156100d357600080fd5b506100ee60048036038101906100e991906123d2565b6102af565b005b3480156100fc57600080fd5b5061010561065a565b6040516101129190612935565b60405180910390f35b34801561012757600080fd5b50610142600480360381019061013d91906123d2565b610a52565b60405161015496959493929190612957565b60405180910390f35b34801561016957600080fd5b50610172610afb565b60405161017f9190612935565b60405180910390f35b34801561019457600080fd5b5061019d610ef8565b005b3480156101ab57600080fd5b506101b4610f80565b005b3480156101c257600080fd5b506101cb611019565b6040516101d8919061283d565b60405180910390f35b6101fb60048036038101906101f6919061236b565b611043565b005b610217600480360381019061021291906123d2565b6115d5565b005b34801561022557600080fd5b5061022e611b65565b60405161023b9190612bf6565b60405180910390f35b34801561025057600080fd5b5061026b60048036038101906102669190612342565b611b6b565b005b34801561027957600080fd5b50610282611c63565b005b34801561029057600080fd5b50610299611cfc565b6040516102a69190612935565b60405180910390f35b8060008110156102f4576040517f08c379a00000000000000000000000000000000000000000000000000000000081526004016102eb90612a96565b60405180910390fd5b600960009054906101000a900460ff16610343576040517f08c379a000000000000000000000000000000000000000000000000000000000815260040161033a90612b56565b60405180910390fd5b60006006600084815260200190815260200160002090508060010160009054906101000a900473ffffffffffffffffffffffffffffffffffffffff1673ffffffffffffffffffffffffffffffffffffffff163373ffffffffffffffffffffffffffffffffffffffff16148061040757508060020160009054906101000a900473ffffffffffffffffffffffffffffffffffffffff1673ffffffffffffffffffffffffffffffffffffffff163373ffffffffffffffffffffffffffffffffffffffff16145b610446576040517f08c379a000000000000000000000000000000000000000000000000000000000815260040161043d90612bd6565b60405180910390fd5b60006002811115610480577f4e487b7100000000000000000000000000000000000000000000000000000000600052602160045260246000fd5b8160000160009054906101000a900460ff1660028111156104ca577f4e487b7100000000000000000000000000000000000000000000000000000000600052602160045260246000fd5b1461050a576040517f08c379a000000000000000000000000000000000000000000000000000000000815260040161050190612ad6565b60405180910390fd5b60028160000160006101000a81548160ff02191690836002811115610558577f4e487b7100000000000000000000000000000000000000000000000000000000600052602160045260246000fd5b02179055508060000160019054906101000a900473ffffffffffffffffffffffffffffffffffffffff1673ffffffffffffffffffffffffffffffffffffffff166323b872dd303384600301546040518463ffffffff1660e01b81526004016105c2939291906128fe565b600060405180830381600087803b1580156105dc57600080fd5b505af11580156105f0573d6000803e3d6000fd5b505050507f9a7ead5b5e3d6b8d3e88f6057599b7eecec51b2aad38c25b8141deaec6dcabc381600301548260010160009054906101000a900473ffffffffffffffffffffffffffffffffffffffff1660405161064d929190612c11565b60405180910390a1505050565b6060600061066860026120f9565b9050600061067660036120f9565b61068060026120f9565b61068a9190612d46565b90506000808267ffffffffffffffff8111156106cf577f4e487b7100000000000000000000000000000000000000000000000000000000600052604160045260246000fd5b60405190808252806020026020018201604052801561070857816020015b6106f56121eb565b8152602001906001900390816106ed5790505b50905060005b84811015610a47573073ffffffffffffffffffffffffffffffffffffffff166006600083815260200190815260200160002060010160009054906101000a900473ffffffffffffffffffffffffffffffffffffffff1673ffffffffffffffffffffffffffffffffffffffff1614801561081a5750600060028111156107bc577f4e487b7100000000000000000000000000000000000000000000000000000000600052602160045260246000fd5b6006600083815260200190815260200160002060000160009054906101000a900460ff166002811115610818577f4e487b7100000000000000000000000000000000000000000000000000000000600052602160045260246000fd5b145b15610a34576000600660008381526020019081526020016000209050806040518060c00160405290816000820160009054906101000a900460ff16600281111561088d577f4e487b7100000000000000000000000000000000000000000000000000000000600052602160045260246000fd5b60028111156108c5577f4e487b7100000000000000000000000000000000000000000000000000000000600052602160045260246000fd5b81526020016000820160019054906101000a900473ffffffffffffffffffffffffffffffffffffffff1673ffffffffffffffffffffffffffffffffffffffff1673ffffffffffffffffffffffffffffffffffffffff1681526020016001820160009054906101000a900473ffffffffffffffffffffffffffffffffffffffff1673ffffffffffffffffffffffffffffffffffffffff1673ffffffffffffffffffffffffffffffffffffffff1681526020016002820160009054906101000a900473ffffffffffffffffffffffffffffffffffffffff1673ffffffffffffffffffffffffffffffffffffffff1673ffffffffffffffffffffffffffffffffffffffff16815260200160038201548152602001600482015481525050838581518110610a18577f4e487b7100000000000000000000000000000000000000000000000000000000600052603260045260246000fd5b6020026020010181905250600184610a309190612cf0565b9350505b8080610a3f90612e96565b91505061070e565b508094505050505090565b60066020528060005260406000206000915090508060000160009054906101000a900460ff16908060000160019054906101000a900473ffffffffffffffffffffffffffffffffffffffff16908060010160009054906101000a900473ffffffffffffffffffffffffffffffffffffffff16908060020160009054906101000a900473ffffffffffffffffffffffffffffffffffffffff16908060030154908060040154905086565b60606000600860003373ffffffffffffffffffffffffffffffffffffffff1673ffffffffffffffffffffffffffffffffffffffff1681526020019081526020016000205411610b7f576040517f08c379a0000000000000000000000000000000000000000000000000000000008152600401610b7690612b36565b60405180910390fd5b6000610b8b60026120f9565b90506000600860003373ffffffffffffffffffffffffffffffffffffffff1673ffffffffffffffffffffffffffffffffffffffff1681526020019081526020016000205490506000808267ffffffffffffffff811115610c14577f4e487b7100000000000000000000000000000000000000000000000000000000600052604160045260246000fd5b604051908082528060200260200182016040528015610c4d57816020015b610c3a6121eb565b815260200190600190039081610c325790505b50905060005b84811015610eed573373ffffffffffffffffffffffffffffffffffffffff166006600083815260200190815260200160002060010160009054906101000a900473ffffffffffffffffffffffffffffffffffffffff1673ffffffffffffffffffffffffffffffffffffffff161415610eda576000600660008381526020019081526020016000209050806040518060c00160405290816000820160009054906101000a900460ff166002811115610d33577f4e487b7100000000000000000000000000000000000000000000000000000000600052602160045260246000fd5b6002811115610d6b577f4e487b7100000000000000000000000000000000000000000000000000000000600052602160045260246000fd5b81526020016000820160019054906101000a900473ffffffffffffffffffffffffffffffffffffffff1673ffffffffffffffffffffffffffffffffffffffff1673ffffffffffffffffffffffffffffffffffffffff1681526020016001820160009054906101000a900473ffffffffffffffffffffffffffffffffffffffff1673ffffffffffffffffffffffffffffffffffffffff1673ffffffffffffffffffffffffffffffffffffffff1681526020016002820160009054906101000a900473ffffffffffffffffffffffffffffffffffffffff1673ffffffffffffffffffffffffffffffffffffffff1673ffffffffffffffffffffffffffffffffffffffff16815260200160038201548152602001600482015481525050838581518110610ebe577f4e487b7100000000000000000000000000000000000000000000000000000000600052603260045260246000fd5b6020026020010181905250600184610ed69190612cf0565b9350505b8080610ee590612e96565b915050610c53565b508094505050505090565b610f00612107565b73ffffffffffffffffffffffffffffffffffffffff16610f1e611019565b73ffffffffffffffffffffffffffffffffffffffff1614610f74576040517f08c379a0000000000000000000000000000000000000000000000000000000008152600401610f6b90612af6565b60405180910390fd5b610f7e600061210f565b565b610f88612107565b73ffffffffffffffffffffffffffffffffffffffff16610fa6611019565b73ffffffffffffffffffffffffffffffffffffffff1614610ffc576040517f08c379a0000000000000000000000000000000000000000000000000000000008152600401610ff390612af6565b60405180910390fd5b6001600960006101000a81548160ff021916908315150217905550565b6000600160009054906101000a900473ffffffffffffffffffffffffffffffffffffffff16905090565b600960009054906101000a900460ff16611092576040517f08c379a000000000000000000000000000000000000000000000000000000000815260040161108990612b56565b60405180910390fd5b600260005414156110d8576040517f08c379a00000000000000000000000000000000000000000000000000000000081526004016110cf90612b96565b60405180910390fd5b600260008190555060008211611123576040517f08c379a000000000000000000000000000000000000000000000000000000000815260040161111a90612bb6565b60405180910390fd5b6005543414611167576040517f08c379a000000000000000000000000000000000000000000000000000000000815260040161115e90612a16565b60405180910390fd5b600073ffffffffffffffffffffffffffffffffffffffff168173ffffffffffffffffffffffffffffffffffffffff1614156111d7576040517f08c379a00000000000000000000000000000000000000000000000000000000081526004016111ce90612a76565b60405180910390fd5b600083511161121b576040517f08c379a000000000000000000000000000000000000000000000000000000000815260040161121290612a56565b60405180910390fd5b600061122760026120f9565b905061123360026121d5565b600760003373ffffffffffffffffffffffffffffffffffffffff1673ffffffffffffffffffffffffffffffffffffffff168152602001908152602001600020600081548092919061128390612e96565b919050555060008273ffffffffffffffffffffffffffffffffffffffff16636af812828630336040518463ffffffff1660e01b81526004016112c7939291906129b8565b602060405180830381600087803b1580156112e157600080fd5b505af11580156112f5573d6000803e3d6000fd5b505050506040513d601f19601f8201168201806040525081019061131991906123fb565b90506040518060c0016040528060006002811115611360577f4e487b7100000000000000000000000000000000000000000000000000000000600052602160045260246000fd5b81526020018473ffffffffffffffffffffffffffffffffffffffff1681526020013073ffffffffffffffffffffffffffffffffffffffff1681526020013373ffffffffffffffffffffffffffffffffffffffff168152602001828152602001858152506006600084815260200190815260200160002060008201518160000160006101000a81548160ff02191690836002811115611427577f4e487b7100000000000000000000000000000000000000000000000000000000600052602160045260246000fd5b021790555060208201518160000160016101000a81548173ffffffffffffffffffffffffffffffffffffffff021916908373ffffffffffffffffffffffffffffffffffffffff16021790555060408201518160010160006101000a81548173ffffffffffffffffffffffffffffffffffffffff021916908373ffffffffffffffffffffffffffffffffffffffff16021790555060608201518160020160006101000a81548173ffffffffffffffffffffffffffffffffffffffff021916908373ffffffffffffffffffffffffffffffffffffffff1602179055506080820151816003015560a082015181600401559050508273ffffffffffffffffffffffffffffffffffffffff166323b872dd3330846040518463ffffffff1660e01b8152600401611555939291906128fe565b600060405180830381600087803b15801561156f57600080fd5b505af1158015611583573d6000803e3d6000fd5b505050507f14119be79c3c72a43e018782c3768e0f129fd3c6b43e7fd40c621cfd78c5518083303384886040516115be959493929190612858565b60405180910390a150506001600081905550505050565b80600081101561161a576040517f08c379a000000000000000000000000000000000000000000000000000000000815260040161161190612a96565b60405180910390fd5b600960009054906101000a900460ff16611669576040517f08c379a000000000000000000000000000000000000000000000000000000000815260040161166090612b56565b60405180910390fd5b600260005414156116af576040517f08c379a00000000000000000000000000000000000000000000000000000000081526004016116a690612b96565b60405180910390fd5b6002600081905550600060066000848152602001908152602001600020905034816004015414611714576040517f08c379a000000000000000000000000000000000000000000000000000000000815260040161170b906129f6565b60405180910390fd5b338160010160006101000a81548173ffffffffffffffffffffffffffffffffffffffff021916908373ffffffffffffffffffffffffffffffffffffffff16021790555060018160000160006101000a81548160ff021916908360028111156117a5577f4e487b7100000000000000000000000000000000000000000000000000000000600052602160045260246000fd5b0217905550600860003373ffffffffffffffffffffffffffffffffffffffff1673ffffffffffffffffffffffffffffffffffffffff16815260200190815260200160002060008154809291906117fa90612e96565b919050555060008160020160009054906101000a900473ffffffffffffffffffffffffffffffffffffffff169050600073ffffffffffffffffffffffffffffffffffffffff168260010160009054906101000a900473ffffffffffffffffffffffffffffffffffffffff1673ffffffffffffffffffffffffffffffffffffffff1614156118a9578160010160009054906101000a900473ffffffffffffffffffffffffffffffffffffffff1690505b60008173ffffffffffffffffffffffffffffffffffffffff16346040516118cf90612828565b60006040518083038185875af1925050503d806000811461190c576040519150601f19603f3d011682016040523d82523d6000602084013e611911565b606091505b5050905080611955576040517f08c379a000000000000000000000000000000000000000000000000000000000815260040161194c90612b16565b60405180910390fd5b61195f60036121d5565b8260000160019054906101000a900473ffffffffffffffffffffffffffffffffffffffff1673ffffffffffffffffffffffffffffffffffffffff166323b872dd303386600301546040518463ffffffff1660e01b81526004016119c4939291906128fe565b600060405180830381600087803b1580156119de57600080fd5b505af11580156119f2573d6000803e3d6000fd5b505050506000600460009054906101000a900473ffffffffffffffffffffffffffffffffffffffff1673ffffffffffffffffffffffffffffffffffffffff16600554604051611a4090612828565b60006040518083038185875af1925050503d8060008114611a7d576040519150601f19603f3d011682016040523d82523d6000602084013e611a82565b606091505b5050905080611ac6576040517f08c379a0000000000000000000000000000000000000000000000000000000008152600401611abd90612b76565b60405180910390fd5b7f5764dbcef91eb6f946584f4ea671217c686fa7e858ce4f9f42d08422b86556a98460000160019054906101000a900473ffffffffffffffffffffffffffffffffffffffff16338660020160009054906101000a900473ffffffffffffffffffffffffffffffffffffffff1687600301548860040154604051611b4d9594939291906128ab565b60405180910390a15050505060016000819055505050565b60055481565b611b73612107565b73ffffffffffffffffffffffffffffffffffffffff16611b91611019565b73ffffffffffffffffffffffffffffffffffffffff1614611be7576040517f08c379a0000000000000000000000000000000000000000000000000000000008152600401611bde90612af6565b60405180910390fd5b600073ffffffffffffffffffffffffffffffffffffffff168173ffffffffffffffffffffffffffffffffffffffff161415611c57576040517f08c379a0000000000000000000000000000000000000000000000000000000008152600401611c4e90612a36565b60405180910390fd5b611c608161210f565b50565b611c6b612107565b73ffffffffffffffffffffffffffffffffffffffff16611c89611019565b73ffffffffffffffffffffffffffffffffffffffff1614611cdf576040517f08c379a0000000000000000000000000000000000000000000000000000000008152600401611cd690612af6565b60405180910390fd5b6000600960006101000a81548160ff021916908315150217905550565b60606000600760003373ffffffffffffffffffffffffffffffffffffffff1673ffffffffffffffffffffffffffffffffffffffff1681526020019081526020016000205411611d80576040517f08c379a0000000000000000000000000000000000000000000000000000000008152600401611d7790612ab6565b60405180910390fd5b6000611d8c60026120f9565b90506000600760003373ffffffffffffffffffffffffffffffffffffffff1673ffffffffffffffffffffffffffffffffffffffff16815260200190815260200160002054905060008167ffffffffffffffff811115611e14577f4e487b7100000000000000000000000000000000000000000000000000000000600052604160045260246000fd5b604051908082528060200260200182016040528015611e4d57816020015b611e3a6121eb565b815260200190600190039081611e325790505b5090506000805b848110156120ee573373ffffffffffffffffffffffffffffffffffffffff166006600083815260200190815260200160002060020160009054906101000a900473ffffffffffffffffffffffffffffffffffffffff1673ffffffffffffffffffffffffffffffffffffffff1614156120db576000600660008381526020019081526020016000209050806040518060c00160405290816000820160009054906101000a900460ff166002811115611f34577f4e487b7100000000000000000000000000000000000000000000000000000000600052602160045260246000fd5b6002811115611f6c577f4e487b7100000000000000000000000000000000000000000000000000000000600052602160045260246000fd5b81526020016000820160019054906101000a900473ffffffffffffffffffffffffffffffffffffffff1673ffffffffffffffffffffffffffffffffffffffff1673ffffffffffffffffffffffffffffffffffffffff1681526020016001820160009054906101000a900473ffffffffffffffffffffffffffffffffffffffff1673ffffffffffffffffffffffffffffffffffffffff1673ffffffffffffffffffffffffffffffffffffffff1681526020016002820160009054906101000a900473ffffffffffffffffffffffffffffffffffffffff1673ffffffffffffffffffffffffffffffffffffffff1673ffffffffffffffffffffffffffffffffffffffff168152602001600382015481526020016004820154815250508484815181106120bf577f4e487b7100000000000000000000000000000000000000000000000000000000600052603260045260246000fd5b60200260200101819052506001836120d79190612cf0565b9250505b80806120e690612e96565b915050611e54565b508194505050505090565b600081600001549050919050565b600033905090565b6000600160009054906101000a900473ffffffffffffffffffffffffffffffffffffffff16905081600160006101000a81548173ffffffffffffffffffffffffffffffffffffffff021916908373ffffffffffffffffffffffffffffffffffffffff1602179055508173ffffffffffffffffffffffffffffffffffffffff168173ffffffffffffffffffffffffffffffffffffffff167f8be0079c531659141344cd1fd0a4f28419497f9722a3daafe3b4186f6b6457e060405160405180910390a35050565b6001816000016000828254019250508190555050565b6040518060c0016040528060006002811115612230577f4e487b7100000000000000000000000000000000000000000000000000000000600052602160045260246000fd5b8152602001600073ffffffffffffffffffffffffffffffffffffffff168152602001600073ffffffffffffffffffffffffffffffffffffffff168152602001600073ffffffffffffffffffffffffffffffffffffffff16815260200160008152602001600081525090565b60006122ae6122a984612c5f565b612c3a565b9050828152602081018484840111156122c657600080fd5b6122d1848285612e23565b509392505050565b6000813590506122e881613296565b92915050565b600082601f8301126122ff57600080fd5b813561230f84826020860161229b565b91505092915050565b600081359050612327816132ad565b92915050565b60008151905061233c816132ad565b92915050565b60006020828403121561235457600080fd5b6000612362848285016122d9565b91505092915050565b60008060006060848603121561238057600080fd5b600084013567ffffffffffffffff81111561239a57600080fd5b6123a6868287016122ee565b93505060206123b786828701612318565b92505060406123c8868287016122d9565b9150509250925092565b6000602082840312156123e457600080fd5b60006123f284828501612318565b91505092915050565b60006020828403121561240d57600080fd5b600061241b8482850161232d565b91505092915050565b6000612430838361278f565b60c08301905092915050565b61244581612ddb565b82525050565b61245481612d8c565b82525050565b61246381612d8c565b82525050565b61247281612d7a565b82525050565b61248181612d7a565b82525050565b600061249282612ca0565b61249c8185612cc3565b93506124a783612c90565b8060005b838110156124d85781516124bf8882612424565b97506124ca83612cb6565b9250506001810190506124ab565b5085935050505092915050565b6124ee81612ded565b82525050565b6124fd81612ded565b82525050565b600061250e82612cab565b6125188185612cdf565b9350612528818560208601612e32565b61253181612f6c565b840191505092915050565b6000612549602083612cdf565b915061255482612f7d565b602082019050919050565b600061256c601d83612cdf565b915061257782612fa6565b602082019050919050565b600061258f602683612cdf565b915061259a82612fcf565b604082019050919050565b60006125b2601183612cdf565b91506125bd8261301e565b602082019050919050565b60006125d5602183612cdf565b91506125e082613047565b604082019050919050565b60006125f8601583612cdf565b915061260382613096565b602082019050919050565b600061261b602283612cdf565b9150612626826130bf565b604082019050919050565b600061263e601583612cdf565b91506126498261310e565b602082019050919050565b6000612661602083612cdf565b915061266c82613137565b602082019050919050565b6000612684601a83612cdf565b915061268f82613160565b602082019050919050565b60006126a7600083612cd4565b91506126b282613189565b600082019050919050565b60006126ca601a83612cdf565b91506126d58261318c565b602082019050919050565b60006126ed601283612cdf565b91506126f8826131b5565b602082019050919050565b6000612710601b83612cdf565b915061271b826131de565b602082019050919050565b6000612733601f83612cdf565b915061273e82613207565b602082019050919050565b6000612756601c83612cdf565b915061276182613230565b602082019050919050565b6000612779601d83612cdf565b915061278482613259565b602082019050919050565b60c0820160008201516127a560008501826124e5565b5060208201516127b86020850182612469565b5060408201516127cb604085018261244b565b5060608201516127de606085018261244b565b5060808201516127f1608085018261280a565b5060a082015161280460a085018261280a565b50505050565b61281381612dd1565b82525050565b61282281612dd1565b82525050565b60006128338261269a565b9150819050919050565b60006020820190506128526000830184612478565b92915050565b600060a08201905061286d6000830188612478565b61287a602083018761243c565b612887604083018661243c565b6128946060830185612819565b6128a16080830184612819565b9695505050505050565b600060a0820190506128c06000830188612478565b6128cd6020830187612478565b6128da604083018661243c565b6128e76060830185612819565b6128f46080830184612819565b9695505050505050565b60006060820190506129136000830186612478565b6129206020830185612478565b61292d6040830184612819565b949350505050565b6000602082019050818103600083015261294f8184612487565b905092915050565b600060c08201905061296c60008301896124f4565b6129796020830188612478565b612986604083018761245a565b612993606083018661245a565b6129a06080830185612819565b6129ad60a0830184612819565b979650505050505050565b600060608201905081810360008301526129d28186612503565b90506129e16020830185612478565b6129ee6040830184612478565b949350505050565b60006020820190508181036000830152612a0f8161253c565b9050919050565b60006020820190508181036000830152612a2f8161255f565b9050919050565b60006020820190508181036000830152612a4f81612582565b9050919050565b60006020820190508181036000830152612a6f816125a5565b9050919050565b60006020820190508181036000830152612a8f816125c8565b9050919050565b60006020820190508181036000830152612aaf816125eb565b9050919050565b60006020820190508181036000830152612acf8161260e565b9050919050565b60006020820190508181036000830152612aef81612631565b9050919050565b60006020820190508181036000830152612b0f81612654565b9050919050565b60006020820190508181036000830152612b2f81612677565b9050919050565b60006020820190508181036000830152612b4f816126bd565b9050919050565b60006020820190508181036000830152612b6f816126e0565b9050919050565b60006020820190508181036000830152612b8f81612703565b9050919050565b60006020820190508181036000830152612baf81612726565b9050919050565b60006020820190508181036000830152612bcf81612749565b9050919050565b60006020820190508181036000830152612bef8161276c565b9050919050565b6000602082019050612c0b6000830184612819565b92915050565b6000604082019050612c266000830185612819565b612c33602083018461243c565b9392505050565b6000612c44612c55565b9050612c508282612e65565b919050565b6000604051905090565b600067ffffffffffffffff821115612c7a57612c79612f3d565b5b612c8382612f6c565b9050602081019050919050565b6000819050602082019050919050565b600081519050919050565b600081519050919050565b6000602082019050919050565b600082825260208201905092915050565b600081905092915050565b600082825260208201905092915050565b6000612cfb82612dd1565b9150612d0683612dd1565b9250827fffffffffffffffffffffffffffffffffffffffffffffffffffffffffffffffff03821115612d3b57612d3a612edf565b5b828201905092915050565b6000612d5182612dd1565b9150612d5c83612dd1565b925082821015612d6f57612d6e612edf565b5b828203905092915050565b6000612d8582612db1565b9050919050565b6000612d9782612db1565b9050919050565b6000819050612dac82613282565b919050565b600073ffffffffffffffffffffffffffffffffffffffff82169050919050565b6000819050919050565b6000612de682612dff565b9050919050565b6000612df882612d9e565b9050919050565b6000612e0a82612e11565b9050919050565b6000612e1c82612db1565b9050919050565b82818337600083830152505050565b60005b83811015612e50578082015181840152602081019050612e35565b83811115612e5f576000848401525b50505050565b612e6e82612f6c565b810181811067ffffffffffffffff82111715612e8d57612e8c612f3d565b5b80604052505050565b6000612ea182612dd1565b91507fffffffffffffffffffffffffffffffffffffffffffffffffffffffffffffffff821415612ed457612ed3612edf565b5b600182019050919050565b7f4e487b7100000000000000000000000000000000000000000000000000000000600052601160045260246000fd5b7f4e487b7100000000000000000000000000000000000000000000000000000000600052602160045260246000fd5b7f4e487b7100000000000000000000000000000000000000000000000000000000600052604160045260246000fd5b6000601f19601f8301169050919050565b7f5072696365206d75737420626520657175616c20746f204e4654207072696365600082015250565b7f596f75206e65656420746f20706179206d696e74696e67207072696365000000600082015250565b7f4f776e61626c653a206e6577206f776e657220697320746865207a65726f206160008201527f6464726573730000000000000000000000000000000000000000000000000000602082015250565b7f456e74657220612076616c696420757269000000000000000000000000000000600082015250565b7f456e74657220612076616c6964206d61726b6574706c6163652061646472657360008201527f7300000000000000000000000000000000000000000000000000000000000000602082015250565b7f456e74657220612076616c696420746f6b656e49640000000000000000000000600082015250565b7f596f752068617665206e6f7420796574206372656174656420616e792069746560008201527f6d73000000000000000000000000000000000000000000000000000000000000602082015250565b7f4c697374696e67206973206e6f74206163746976650000000000000000000000600082015250565b7f4f776e61626c653a2063616c6c6572206973206e6f7420746865206f776e6572600082015250565b7f5472616e73666572206f66207061796d656e74206661696c6564000000000000600082015250565b50565b7f596f752063757272656e746c79206f776e206e6f206974656d73000000000000600082015250565b7f436f6e7472616374206973207061757365640000000000000000000000000000600082015250565b7f5472616e73666572206f66206d696e74436f7374206661696c65640000000000600082015250565b7f5265656e7472616e637947756172643a207265656e7472616e742063616c6c00600082015250565b7f5072696365206d757374206265206174206c6561737420312077656900000000600082015250565b7f4f6e6c79206f776e65722063616e2063616e63656c206c697374696e67000000600082015250565b6003811061329357613292612f0e565b5b50565b61329f81612d7a565b81146132aa57600080fd5b50565b6132b681612dd1565b81146132c157600080fd5b5056fea2646970667358221220ffe731686283ce8b5306ead73a33298dd6f6272b1166949b7b554031f318bbb464736f6c63430008040033",
  "linkReferences": {},
  "deployedLinkReferences": {}
}